{
  "contractName": "Registry",
  "abi": [
    {
      "inputs": [],
      "stateMutability": "nonpayable",
      "type": "constructor"
    },
    {
      "inputs": [
        {
          "internalType": "address",
          "name": "",
          "type": "address"
        },
        {
          "internalType": "uint256",
          "name": "",
          "type": "uint256"
        }
      ],
      "name": "adminMapsProperty",
      "outputs": [
        {
          "internalType": "uint256",
          "name": "surveyNo",
          "type": "uint256"
        },
        {
          "internalType": "string",
          "name": "state",
          "type": "string"
        },
        {
          "internalType": "string",
          "name": "district",
          "type": "string"
        },
        {
          "internalType": "string",
          "name": "city",
          "type": "string"
        },
        {
          "internalType": "address",
          "name": "AllocatedTo",
          "type": "address"
        }
      ],
      "stateMutability": "view",
      "type": "function",
      "constant": true
    },
    {
      "inputs": [
        {
          "internalType": "address",
          "name": "",
          "type": "address"
        }
      ],
      "name": "admins",
      "outputs": [
        {
          "internalType": "address",
          "name": "adminAddress",
          "type": "address"
        },
        {
          "internalType": "string",
          "name": "city",
          "type": "string"
        },
        {
          "internalType": "string",
          "name": "district",
          "type": "string"
        },
        {
          "internalType": "string",
          "name": "state",
          "type": "string"
        }
      ],
      "stateMutability": "view",
      "type": "function",
      "constant": true
    },
    {
      "inputs": [
        {
          "internalType": "string",
          "name": "",
          "type": "string"
        },
        {
          "internalType": "string",
          "name": "",
          "type": "string"
        },
        {
          "internalType": "string",
          "name": "",
          "type": "string"
        },
        {
          "internalType": "uint256",
          "name": "",
          "type": "uint256"
        }
      ],
      "name": "landDetalsMap",
      "outputs": [
        {
          "internalType": "address",
          "name": "owner",
          "type": "address"
        },
        {
          "internalType": "string",
          "name": "tendertype",
          "type": "string"
        },
        {
          "internalType": "string",
          "name": "tenderName",
          "type": "string"
        },
        {
          "internalType": "address",
          "name": "admin",
          "type": "address"
        },
        {
          "internalType": "string",
          "name": "ipfsuri",
          "type": "string"
        },
        {
          "internalType": "uint256",
          "name": "propertyId",
          "type": "uint256"
        },
        {
          "internalType": "uint256",
          "name": "surveyNumber",
          "type": "uint256"
        },
        {
          "internalType": "uint256",
          "name": "index",
          "type": "uint256"
        },
        {
          "internalType": "bool",
          "name": "registered",
          "type": "bool"
        },
        {
          "internalType": "uint256",
          "name": "marketValue",
          "type": "uint256"
        },
        {
          "internalType": "bool",
          "name": "markAvailable",
          "type": "bool"
        },
        {
          "internalType": "uint256",
          "name": "noOfRequests",
          "type": "uint256"
        }
      ],
      "stateMutability": "view",
      "type": "function",
      "constant": true
    },
    {
      "inputs": [
        {
          "internalType": "address",
          "name": "",
          "type": "address"
        },
        {
          "internalType": "uint256",
          "name": "",
          "type": "uint256"
        }
      ],
      "name": "ownerMapsProperty",
      "outputs": [
        {
          "internalType": "uint256",
          "name": "surveyNumber",
          "type": "uint256"
        },
        {
          "internalType": "string",
          "name": "state",
          "type": "string"
        },
        {
          "internalType": "string",
          "name": "district",
          "type": "string"
        },
        {
          "internalType": "string",
          "name": "city",
          "type": "string"
        }
      ],
      "stateMutability": "view",
      "type": "function",
      "constant": true
    },
    {
      "inputs": [
        {
          "internalType": "address",
          "name": "",
          "type": "address"
        },
        {
          "internalType": "uint256",
          "name": "",
          "type": "uint256"
        }
      ],
      "name": "requestedLands",
      "outputs": [
        {
          "internalType": "uint256",
          "name": "surveyNumber",
          "type": "uint256"
        },
        {
          "internalType": "string",
          "name": "state",
          "type": "string"
        },
        {
          "internalType": "string",
          "name": "district",
          "type": "string"
        },
        {
          "internalType": "string",
          "name": "city",
          "type": "string"
        }
      ],
      "stateMutability": "view",
      "type": "function",
      "constant": true
    },
    {
      "inputs": [],
      "name": "superAdmin",
      "outputs": [
        {
          "internalType": "address",
          "name": "",
          "type": "address"
        }
      ],
      "stateMutability": "view",
      "type": "function",
      "constant": true
    },
    {
      "inputs": [],
      "name": "totalAdmins",
      "outputs": [
        {
          "internalType": "uint256",
          "name": "",
          "type": "uint256"
        }
      ],
      "stateMutability": "view",
      "type": "function",
      "constant": true
    },
    {
      "inputs": [],
      "name": "totalTendors",
      "outputs": [
        {
          "internalType": "uint256",
          "name": "",
          "type": "uint256"
        }
      ],
      "stateMutability": "view",
      "type": "function",
      "constant": true
    },
    {
      "inputs": [],
      "name": "totalVendors",
      "outputs": [
        {
          "internalType": "uint256",
          "name": "",
          "type": "uint256"
        }
      ],
      "stateMutability": "view",
      "type": "function",
      "constant": true
    },
    {
      "inputs": [
        {
          "internalType": "address",
          "name": "",
          "type": "address"
        }
      ],
      "name": "userProfile",
      "outputs": [
        {
          "internalType": "address",
          "name": "userAddr",
          "type": "address"
        },
        {
          "internalType": "string",
          "name": "fullName",
          "type": "string"
        },
        {
          "internalType": "string",
          "name": "gender",
          "type": "string"
        },
        {
          "internalType": "string",
          "name": "email",
          "type": "string"
        },
        {
          "internalType": "uint256",
          "name": "contact",
          "type": "uint256"
        },
        {
          "internalType": "string",
          "name": "residentialAddr",
          "type": "string"
        },
        {
          "internalType": "uint256",
          "name": "totalIndices",
          "type": "uint256"
        },
        {
          "internalType": "uint256",
          "name": "requestIndices",
          "type": "uint256"
        }
      ],
      "stateMutability": "view",
      "type": "function",
      "constant": true
    },
    {
      "inputs": [
        {
          "internalType": "address",
          "name": "",
          "type": "address"
        }
      ],
      "name": "vendors",
      "outputs": [
        {
          "internalType": "address",
          "name": "vendorAddress",
          "type": "address"
        },
        {
          "internalType": "string",
          "name": "city",
          "type": "string"
        },
        {
          "internalType": "string",
          "name": "district",
          "type": "string"
        },
        {
          "internalType": "string",
          "name": "state",
          "type": "string"
        },
        {
          "internalType": "string",
          "name": "year",
          "type": "string"
        },
        {
          "internalType": "string",
          "name": "vendortype",
          "type": "string"
        },
        {
          "internalType": "uint256",
          "name": "rating",
          "type": "uint256"
        },
        {
          "internalType": "uint256",
          "name": "noofRaters",
          "type": "uint256"
        }
      ],
      "stateMutability": "view",
      "type": "function",
      "constant": true
    },
    {
      "inputs": [
        {
          "internalType": "address",
          "name": "_adminAddr",
          "type": "address"
        },
        {
          "internalType": "string",
          "name": "_state",
          "type": "string"
        },
        {
          "internalType": "string",
          "name": "_district",
          "type": "string"
        },
        {
          "internalType": "string",
          "name": "_city",
          "type": "string"
        },
        {
          "internalType": "string",
          "name": "_fullName",
          "type": "string"
        },
        {
          "internalType": "string",
          "name": "_gender",
          "type": "string"
        },
        {
          "internalType": "string",
          "name": "_email",
          "type": "string"
        },
        {
          "internalType": "uint256",
          "name": "_contact",
          "type": "uint256"
        },
        {
          "internalType": "string",
          "name": "_residentialAddr",
          "type": "string"
        }
      ],
      "name": "addAdmin",
      "outputs": [],
      "stateMutability": "nonpayable",
      "type": "function"
    },
    {
      "inputs": [
        {
          "internalType": "address",
          "name": "_vendorAddr",
          "type": "address"
        },
        {
          "internalType": "string",
          "name": "_state",
          "type": "string"
        },
        {
          "internalType": "string",
          "name": "_district",
          "type": "string"
        },
        {
          "internalType": "string",
          "name": "_city",
          "type": "string"
        },
        {
          "internalType": "string",
          "name": "_fullName",
          "type": "string"
        },
        {
          "internalType": "string",
          "name": "_gender",
          "type": "string"
        },
        {
          "internalType": "string",
          "name": "_email",
          "type": "string"
        },
        {
          "internalType": "uint256",
          "name": "_contact",
          "type": "uint256"
        },
        {
          "internalType": "string",
          "name": "_residentialAddr",
          "type": "string"
        },
        {
          "internalType": "string",
          "name": "_year",
          "type": "string"
        },
        {
          "internalType": "string",
          "name": "_vendortype",
          "type": "string"
        }
      ],
      "name": "addVendor",
      "outputs": [],
      "stateMutability": "nonpayable",
      "type": "function"
    },
    {
      "inputs": [
        {
          "internalType": "address",
          "name": "_vendortorating",
          "type": "address"
        },
        {
          "internalType": "uint256",
          "name": "_ratenumber",
          "type": "uint256"
        }
      ],
      "name": "GiveRating",
      "outputs": [],
      "stateMutability": "nonpayable",
      "type": "function"
    },
    {
      "inputs": [],
      "name": "isAdmin",
      "outputs": [
        {
          "internalType": "bool",
          "name": "",
          "type": "bool"
        }
      ],
      "stateMutability": "view",
      "type": "function",
      "constant": true
    },
    {
      "inputs": [],
      "name": "isVendor",
      "outputs": [
        {
          "internalType": "bool",
          "name": "",
          "type": "bool"
        }
      ],
      "stateMutability": "view",
      "type": "function",
      "constant": true
    },
    {
      "inputs": [
        {
          "internalType": "string",
          "name": "_state",
          "type": "string"
        },
        {
          "internalType": "string",
          "name": "_district",
          "type": "string"
        },
        {
          "internalType": "string",
          "name": "_city",
          "type": "string"
        },
        {
          "internalType": "uint256",
          "name": "_propertyId",
          "type": "uint256"
        },
        {
          "internalType": "uint256",
          "name": "_surveyNo",
          "type": "uint256"
        },
        {
          "internalType": "address",
          "name": "_owner",
          "type": "address"
        },
        {
          "internalType": "uint256",
          "name": "_marketValue",
          "type": "uint256"
        },
        {
          "internalType": "string",
          "name": "_tenderName",
          "type": "string"
        },
        {
          "internalType": "string",
          "name": "_tendertype",
          "type": "string"
        }
      ],
      "name": "registerLand",
      "outputs": [],
      "stateMutability": "nonpayable",
      "type": "function"
    },
    {
      "inputs": [
        {
          "internalType": "string",
          "name": "_fullName",
          "type": "string"
        },
        {
          "internalType": "string",
          "name": "_gender",
          "type": "string"
        },
        {
          "internalType": "string",
          "name": "_email",
          "type": "string"
        },
        {
          "internalType": "uint256",
          "name": "_contact",
          "type": "uint256"
        },
        {
          "internalType": "string",
          "name": "_residentialAddr",
          "type": "string"
        }
      ],
      "name": "setUserProfile",
      "outputs": [],
      "stateMutability": "nonpayable",
      "type": "function"
    },
    {
      "inputs": [
        {
          "internalType": "uint256",
          "name": "indexNo",
          "type": "uint256"
        }
      ],
      "name": "markMyPropertyAvailable",
      "outputs": [],
      "stateMutability": "nonpayable",
      "type": "function"
    },
    {
      "inputs": [
        {
          "internalType": "string",
          "name": "_state",
          "type": "string"
        },
        {
          "internalType": "string",
          "name": "_district",
          "type": "string"
        },
        {
          "internalType": "string",
          "name": "_city",
          "type": "string"
        },
        {
          "internalType": "uint256",
          "name": "_surveyNo",
          "type": "uint256"
        },
        {
          "internalType": "uint256",
          "name": "_BidAmount",
          "type": "uint256"
        }
      ],
      "name": "RequestForBuy",
      "outputs": [],
      "stateMutability": "nonpayable",
      "type": "function"
    },
    {
      "inputs": [
        {
          "internalType": "uint256",
          "name": "_index",
          "type": "uint256"
        },
        {
          "internalType": "uint256",
          "name": "_reqNo",
          "type": "uint256"
        }
      ],
      "name": "AcceptRequest",
      "outputs": [],
      "stateMutability": "nonpayable",
      "type": "function"
    },
    {
      "inputs": [
        {
          "internalType": "string",
          "name": "_state",
          "type": "string"
        },
        {
          "internalType": "string",
          "name": "_district",
          "type": "string"
        },
        {
          "internalType": "string",
          "name": "_city",
          "type": "string"
        },
        {
          "internalType": "uint256",
          "name": "_surveyNo",
          "type": "uint256"
        }
      ],
      "name": "getLandDetails",
      "outputs": [
        {
          "internalType": "address",
          "name": "",
          "type": "address"
        },
        {
          "internalType": "uint256",
          "name": "",
          "type": "uint256"
        },
        {
          "internalType": "uint256",
          "name": "",
          "type": "uint256"
        },
        {
          "internalType": "uint256",
          "name": "",
          "type": "uint256"
        }
      ],
      "stateMutability": "view",
      "type": "function",
      "constant": true
    },
    {
      "inputs": [
        {
          "internalType": "string",
          "name": "_state",
          "type": "string"
        },
        {
          "internalType": "string",
          "name": "_district",
          "type": "string"
        },
        {
          "internalType": "string",
          "name": "_city",
          "type": "string"
        },
        {
          "internalType": "uint256",
          "name": "_surveyNo",
          "type": "uint256"
        }
      ],
      "name": "getRequestCnt_propId",
      "outputs": [
        {
          "internalType": "uint256",
          "name": "",
          "type": "uint256"
        },
        {
          "internalType": "uint256",
          "name": "",
          "type": "uint256"
        }
      ],
      "stateMutability": "view",
      "type": "function",
      "constant": true
    },
    {
      "inputs": [
        {
          "internalType": "string",
          "name": "_state",
          "type": "string"
        },
        {
          "internalType": "string",
          "name": "_district",
          "type": "string"
        },
        {
          "internalType": "string",
          "name": "_city",
          "type": "string"
        },
        {
          "internalType": "uint256",
          "name": "_surveyNo",
          "type": "uint256"
        },
        {
          "internalType": "uint256",
          "name": "_reqIndex",
          "type": "uint256"
        }
      ],
      "name": "getRequesterDetail",
      "outputs": [
        {
          "internalType": "address",
          "name": "",
          "type": "address"
        }
      ],
      "stateMutability": "view",
      "type": "function",
      "constant": true
    },
    {
      "inputs": [
        {
          "internalType": "string",
          "name": "_state",
          "type": "string"
        },
        {
          "internalType": "string",
          "name": "_district",
          "type": "string"
        },
        {
          "internalType": "string",
          "name": "_city",
          "type": "string"
        },
        {
          "internalType": "uint256",
          "name": "_surveyNo",
          "type": "uint256"
        },
        {
          "internalType": "uint256",
          "name": "_reqIndex",
          "type": "uint256"
        }
      ],
      "name": "getRequesterBidAmount",
      "outputs": [
        {
          "internalType": "uint256",
          "name": "",
          "type": "uint256"
        }
      ],
      "stateMutability": "view",
      "type": "function",
      "constant": true
    },
    {
      "inputs": [
        {
          "internalType": "string",
          "name": "_state",
          "type": "string"
        },
        {
          "internalType": "string",
          "name": "_district",
          "type": "string"
        },
        {
          "internalType": "string",
          "name": "_city",
          "type": "string"
        },
        {
          "internalType": "uint256",
          "name": "_surveyNo",
          "type": "uint256"
        },
        {
          "internalType": "uint256",
          "name": "_reqIndex",
          "type": "uint256"
        }
      ],
      "name": "getRequesterName",
      "outputs": [
        {
          "internalType": "string",
          "name": "",
          "type": "string"
        }
      ],
      "stateMutability": "view",
      "type": "function",
      "constant": true
    },
    {
      "inputs": [
        {
          "internalType": "string",
          "name": "_state",
          "type": "string"
        },
        {
          "internalType": "string",
          "name": "_district",
          "type": "string"
        },
        {
          "internalType": "string",
          "name": "_city",
          "type": "string"
        },
        {
          "internalType": "uint256",
          "name": "_surveyNo",
          "type": "uint256"
        }
      ],
      "name": "isAvailable",
      "outputs": [
        {
          "internalType": "bool",
          "name": "",
          "type": "bool"
        }
      ],
      "stateMutability": "view",
      "type": "function",
      "constant": true
    },
    {
      "inputs": [
        {
          "internalType": "uint256",
          "name": "indx",
          "type": "uint256"
        }
      ],
      "name": "getOwnerOwns",
      "outputs": [
        {
          "internalType": "string",
          "name": "",
          "type": "string"
        },
        {
          "internalType": "string",
          "name": "",
          "type": "string"
        },
        {
          "internalType": "string",
          "name": "",
          "type": "string"
        },
        {
          "internalType": "uint256",
          "name": "",
          "type": "uint256"
        }
      ],
      "stateMutability": "view",
      "type": "function",
      "constant": true
    },
    {
      "inputs": [
        {
          "internalType": "uint256",
          "name": "indx",
          "type": "uint256"
        }
      ],
      "name": "getAdminOwns",
      "outputs": [
        {
          "internalType": "string",
          "name": "",
          "type": "string"
        },
        {
          "internalType": "string",
          "name": "",
          "type": "string"
        },
        {
          "internalType": "string",
          "name": "",
          "type": "string"
        },
        {
          "internalType": "uint256",
          "name": "",
          "type": "uint256"
        }
      ],
      "stateMutability": "view",
      "type": "function",
      "constant": true
    },
    {
      "inputs": [
        {
          "internalType": "uint256",
          "name": "indx",
          "type": "uint256"
        }
      ],
      "name": "getRequestedLands",
      "outputs": [
        {
          "internalType": "string",
          "name": "",
          "type": "string"
        },
        {
          "internalType": "string",
          "name": "",
          "type": "string"
        },
        {
          "internalType": "string",
          "name": "",
          "type": "string"
        },
        {
          "internalType": "uint256",
          "name": "",
          "type": "uint256"
        }
      ],
      "stateMutability": "view",
      "type": "function",
      "constant": true
    },
    {
      "inputs": [],
      "name": "getUserProfile",
      "outputs": [
        {
          "internalType": "string",
          "name": "",
          "type": "string"
        },
        {
          "internalType": "string",
          "name": "",
          "type": "string"
        },
        {
          "internalType": "string",
          "name": "",
          "type": "string"
        },
        {
          "internalType": "uint256",
          "name": "",
          "type": "uint256"
        },
        {
          "internalType": "string",
          "name": "",
          "type": "string"
        }
      ],
      "stateMutability": "view",
      "type": "function",
      "constant": true
    },
    {
      "inputs": [],
      "name": "getIndices",
      "outputs": [
        {
          "internalType": "uint256",
          "name": "",
          "type": "uint256"
        },
        {
          "internalType": "uint256",
          "name": "",
          "type": "uint256"
        }
      ],
      "stateMutability": "view",
      "type": "function",
      "constant": true
    },
    {
      "inputs": [
        {
          "internalType": "string",
          "name": "_state",
          "type": "string"
        },
        {
          "internalType": "string",
          "name": "_district",
          "type": "string"
        },
        {
          "internalType": "string",
          "name": "_city",
          "type": "string"
        },
        {
          "internalType": "uint256",
          "name": "_surveyNo",
          "type": "uint256"
        }
      ],
      "name": "didIRequested",
      "outputs": [
        {
          "internalType": "bool",
          "name": "",
          "type": "bool"
        }
      ],
      "stateMutability": "view",
      "type": "function",
      "constant": true
    },
    {
      "inputs": [],
      "name": "getTotalTendors",
      "outputs": [
        {
          "internalType": "uint256",
          "name": "",
          "type": "uint256"
        }
      ],
      "stateMutability": "view",
      "type": "function",
      "constant": true
    }
  ],
  "bytecode": "0x6080806040523461002e576103e860035560008054600160a060020a03191633179055613b9390816100348239f35b600080fdfe6080604052600436101561001257600080fd5b7c01000000000000000000000000000000000000000000000000000000006000350480630e2279af146135bc5780631555ff1e146134a15780631ac1ce2d14612ba75780631c8e896214612ada57806327e30c36146129ec57806329575f6a146129c55780632ca305f31461292a5780633b82b69f1461221d5780633bbd43b3146121d7578063429b62e51461213f57806344e0573414611fc95780635863056d14611f935780636b31f32614611bec5780636d1b9a8e14611b515780636f61c74414611a9257806379ecc8cb146104415780638b5bcc3d146119da57806398faad55146119bc578063992369da1461197c578063abb5cd0514611911578063b6db75a0146118f6578063bfde241c1461154f578063c782da8e14610c51578063d06efd6714610bdb578063d1dbeff214610b67578063d41cc5c8146104f3578063d44cafa51461045f578063d67b662814610441578063e331ad7c1461030f578063e7217f16146102f4578063eaec23fa146102ce578063eb68048b146102b0578063f70e8d441461025e5763fc47f57d146101ae57600080fd5b34610259576020806003193601126102595760043533600052600782526040600020816000528252610255604060002054336000526007845260406000208360005284526102026001604060002001613696565b92336000526007855260406000208160005285526102266002604060002001613696565b943360005260078152604060002091600052526102496003604060002001613696565b604051948594856138c7565b0390f35b600080fd5b3461025957610281610281610287610275366138ea565b9692919395909561387b565b906138a1565b90600052602052600b604060002001906000526020526020600260406000200154604051908152f35b34610259576000366003190112610259576020600154604051908152f35b346102595760206102ea6102e136613818565b92919091613ad9565b6040519015158152f35b346102595760003660031901126102595760206102ea613ab3565b3461025957608061031f36613818565b9192906040519261041c83519261035c6103566020978881818a019861034681838c61373a565b81016009815203019020896138a1565b826138a1565b836000528652610281600160a060020a0360406000205416976103a86103a26103928a898b60405193849283925192839161373a565b81016009815203019020836138a1565b846138a1565b85600052885261040c88600560406000200154976103eb6103e58b846040518092516103d581838961373a565b81016009815203019020866138a1565b876138a1565b8860005282526007604060002001549960405193849283925192839161373a565b81016009815203019020906138a1565b9060005283526009604060002001549260405194855284015260408301526060820152f35b34610259576000366003190112610259576020600354604051908152f35b3461025957604036600319011261025957600160a060020a0361048061360a565b1680600052600560205260066040600020015460243581018091116104c45760079160005260056020526040600020906006820155016104c08154613951565b9055005b7f4e487b7100000000000000000000000000000000000000000000000000000000600052601160045260246000fd5b3461025957604036600319011261025957336000908152600660209081526040808320600435808552925290912080549061053090600101613696565b913360005260066020526040600020816000526020526105566002604060002001613696565b9033600052600660205260406000209060005260205261057c6003604060002001613696565b916105a86103a260405160208188516105988183858d0161373a565b81016009815203019020846138a1565b81600052602052600b604060002001602435600052602052600160a060020a0360406000205416926105fd610356604051602081816105ed8b8381519384920161373a565b81016009815203019020856138a1565b82600052602052600b604060002001602435600052602052610632610356604051602081816105ed8b8381519384920161373a565b82600052602052600c6040600020015460005b818110610a3a57505061066b610356604051602081816105ed8b8381519384920161373a565b82600052602052604060002084600160a060020a03198254161790556106a4610356604051602081816105ed8b8381519384920161373a565b82600052602052600a60406000200160ff1981541690556106d8610356604051602081816105ed8b8381519384920161373a565b826000526020526000600c60408220015583600052600a602052600660406000200154926006602052604060002084600052602052604060002095838755805167ffffffffffffffff8111610915576107418161073860018b0154613620565b60018b01613977565b6020601f82116001146109ca579080610772926000916109bf575b50816002029160080260020a6000190419161790565b60018801555b815167ffffffffffffffff8111610915576107a38161079a60028b0154613620565b60028b01613977565b6020601f821160011461094f5790806107d3926000916109445750816002029160080260020a6000190419161790565b60028801555b82519667ffffffffffffffff881161091557610805886107fc6003840154613620565b60038401613977565b602097601f811160011461089557610281939261040c926003610849846020956108609b9c9d9e60009161088a5750816002029160080260020a6000190419161790565b9101555b816040519382858094519384920161373a565b90600052602052600760406000200155600052600a60205260066040600020016104c08154613951565b90508a01518f61075c565b60038201600052602060002060005b601f19831681106108fd57509261040c926003600160028561028199986108609c9d9e9f602098601f198116106108e2575b5050020191015561084d565b8c01516008601f841602840a60001904191690558f806108d6565b868b0151825560209a8b019a600190920191016108a4565b7f4e487b7100000000000000000000000000000000000000000000000000000000600052604160045260246000fd5b90508401518a61075c565b6002890160005260206000209060005b601f19841681106109a757509160029160019382601f1981161061098c575b5050020160028801556107d9565b8601516008601f841602840a60001904191690558a8061097e565b9091602060018192858901518155019301910161095f565b90508301518a61075c565b6001890160005260206000209060005b601f1984168110610a2257509160029160019382601f19811610610a07575b505002016001880155610778565b8501516008601f841602840a60001904191690558a806109f9565b909160206001819285880151815501930191016109da565b600190610a72610a6c610a5c60208b816040519382858094519384920161373a565b81016009815203019020886138a1565b856138a1565b85600052602052600b60406000200181600052602052600160a060020a0360406000205416610abc610ab661034660208c816040519382858094519384920161373a565b866138a1565b86600052602052600b604060002001826000526020528260406000200154906000526008602052604060002090600052602052610b1a6003604060002060008155610b08858201613a6b565b610b1460028201613a6b565b01613a6b565b610b39610a6c610a5c60208b816040519382858094519384920161373a565b85600052602052600b6040600020018160005260205260006002604082208281558285820155015501610645565b3461025957604036600319011261025957600160a060020a03610b8861360a565b166000526006602052604060002060243560005260205260406000208054610255610bb560018401613696565b92610bce6003610bc760028401613696565b9201613696565b9060405194859485613782565b34610259576040610c38610bee36613818565b9192939061028186519461040c878051610c196103e58a6020809c81809701956103d581838961373a565b886000528252600c8b6000200154998b5193849283925192839161373a565b9060005281526005836000200154908351928352820152f35b34610259576101203660031901126102595760043567ffffffffffffffff811161025957610c839036906004016137c1565b60243567ffffffffffffffff811161025957610ca39036906004016137c1565b9060443567ffffffffffffffff811161025957610cc49036906004016137c1565b60a43591600160a060020a039384841684036102595760e43567ffffffffffffffff811161025957610cfa9036906004016137c1565b916101043567ffffffffffffffff811161025957610d1c9036906004016137c1565b33600052600460205233876040600020541603611508573360005260046020526003604060002001604051610d6781610d596020820180956139e7565b03601f198101835282613674565b5190206040516020810190610d946020828751610d878187858c0161373a565b8101038084520182613674565b51902014806114b8575b80611466575b156113f957610dc4610ab660405160208186516105ed8183858b0161373a565b600354908160005260205260ff6008604060002001541661138c57610dfa6103e560405160208187516103d58183858c0161373a565b906000526020526040600020903360005260066020526040600020600a602052600660406000200154600052602052604060002094600a602052600160a060020a031989891681855416178455600384019033908254161790556064356005840155600354600684015588881660005260066040600020015460078401556008830160ff199060018282541617905560c43560098501556001600a85019182541617905580519067ffffffffffffffff821161091557610eca82610ec16002870154613620565b60028701613977565b602090601f831160011461131957610efd92916000918361130e575b5050816002029160080260020a6000190419161790565b60028301555b80519067ffffffffffffffff821161091557610f2f82610f266001860154613620565b60018601613977565b602090601f831160011461129b57610f61929160009183611290575050816002029160080260020a6000190419161790565b60018201555b610f746004820154613620565b601f811161126c575b506004600c7f4e6f20555249000000000000000000000000000000000000000000000000000001910155600354835580519067ffffffffffffffff821161091557610fd882610fcf6001870154613620565b60018701613977565b602090601f83116001146111f95761100a929160009183611178575050816002029160080260020a6000190419161790565b60018301555b80519067ffffffffffffffff82116109155761103c826110336002860154613620565b60028601613977565b602090601f83116001146111835791806110729260039594600092611178575050816002029160080260020a6000190419161790565b60028201555b019080519067ffffffffffffffff8211610915576110a08261109a8554613620565b85613977565b602090601f831160011461110d576110d2929160009183611102575050816002029160080260020a6000190419161790565b90555b16600052600a60205260066040600020016110f08154613951565b90556110fd600354613951565b600355005b015190508680610ee6565b90601f198316918460005260206000209260005b81811061116057509160029391856001969410611145575b505050020190556110d5565b01516008601f841602840a6000190419169055868080611139565b92936020600181928786015181550195019301611121565b015190508880610ee6565b906002840160005260206000209160005b601f19851681106111e15750926001926002926003969583601f198116106111c6575b50505002016002820155611078565b01516008601f841602840a60001904191690558880806111b7565b91926020600181928685015181550194019201611194565b906001850160005260206000209160005b601f19851681106112545750918391600293600195601f19811610611239575b50505002016001830155611010565b01516008601f841602840a600019041916905588808061122a565b9192602060018192868501518155019401920161120a565b61128a90600483016000526020601f81600020920104810190613960565b87610f7d565b015190508a80610ee6565b906001840160005260206000209160005b601f19851681106112f65750918391600293600195601f198116106112db575b50505002016001820155610f67565b01516008601f841602840a60001904191690558a80806112cc565b919260206001819286850151815501940192016112ac565b015190508b80610ee6565b906002850160005260206000209160005b601f19851681106113745750918391600293600195601f19811610611359575b50505002016002830155610f03565b01516008601f841602840a60001904191690558b808061134a565b9192602060018192868501518155019401920161132a565b608460405160e560020a62461bcd02815260206004820152602160248201527f537572766579204e756d62657220616c7265616479207265676973746572656460448201527f21000000000000000000000000000000000000000000000000000000000000006064820152fd5b608460405160e560020a62461bcd02815260206004820152602a60248201527f41646d696e2063616e206f6e6c79207265676973746572206c616e64206f662060448201527f73616d6520636974792e000000000000000000000000000000000000000000006064820152fd5b50336000526004602052600160406000200160405161148d81610d596020820180956139e7565b51902060405160208101906114af60208281610d878c8781519384920161373a565b51902014610da4565b5033600052600460205260026040600020016040516114df81610d596020820180956139e7565b51902060405160208101906114ff6020828851610d878187858d0161373a565b51902014610d9e565b606460405160e560020a62461bcd02815260206004820152601c60248201527f4f6e6c792061646d696e2063616e205265676973746572206c616e64000000006044820152fd5b346102595760a03660031901126102595767ffffffffffffffff600435818111610259576115819036906004016137c1565b602435828111610259576115999036906004016137c1565b91604435818111610259576115b29036906004016137c1565b91608435828111610259576115cb9036906004016137c1565b9233600052602094600a865260406000206001928382018551878111610915576115ff816115f98454613620565b84613977565b89601f9788831160011461188c576116319291600091836117a9575050816002029160080260020a6000190419161790565b90555b60029283830190805190888211610915576116538261109a8554613620565b8a90888311600114611822576116839291600091836117a9575050816002029160080260020a6000190419161790565b90555b80516003830191878211610915576116a28261109a8554613620565b89908783116001146117b45791806116d79260059695946000926117a9575050816002029160080260020a6000190419161790565b90555b60643560048201550195855194851161091557611701856116fb8954613620565b89613977565b8093808611600114611740575050505081906104c093600092611735575050816002029160080260020a6000190419161790565b015190508480610ee6565b91949390929584601f1981168960005285600020956000905b8a83831061178f5750505010611774575b5050505002019055005b0151908316600802840a60001904191690558480808061176a565b858701518955909701969485019488935090810190611759565b015190508c80610ee6565b93929185908b8893601f198316978660005282600020926000905b8a821061180857505083600599106117ee575b505050020190556116da565b01516008838c1602840a60001904191690558c80806117e2565b8383015185558c978c97509094019392830192018f6117cf565b918b87928994601f1984168760005283600020936000905b8282106118705750508411611856575b50505002019055611686565b01516008838c1602840a60001904191690558c808061184a565b8484015186558d988d985090950194938401939081019061183a565b918b8892601f1983168660005282600020926000905b8282106118dd575050948360029596106118c3575b50505002019055611634565b01516008838c1602840a60001904191690558c80806118b7565b8388015185558c969094019392830192908101906118a2565b346102595760003660031901126102595760206102ea6139bc565b3461025957610281610281611928610275366138ea565b90600052602052600b60406000200190600052602052600160a060020a0360406000205416600052600a6020526102556119686001604060002001613696565b60405191829160208352602083019061375d565b346102595761028161199d61028161199336613818565b959293909361387b565b90600052602052602060ff600a60406000200154166040519015158152f35b34610259576000366003190112610259576020600254604051908152f35b34610259576040366003190112610259576119f361360a565b600160a060020a0380911660005260076020526040600020602435600052602052604060002090815490611a88611a2c60018501613696565b93611a7a611a3c60028301613696565b936004611a4b60038501613696565b9301541693611a6c604051978897885260a0602089015260a088019061375d565b90868203604088015261375d565b90848203606086015261375d565b9060808301520390f35b346102595760003660031901126102595733600052600a602052611b30611abf6001604060002001613696565b33600052600a602052610255611adb6002604060002001613696565b33600052600a602052611af46003604060002001613696565b9033600052600a602052611b3e604060002092611a6c611b1b600560048701549601613696565b9360405198899860a08a5260a08a019061375d565b9088820360208a015261375d565b916060850152838203608085015261375d565b3461025957602080600319360112610259576004353360005260068252604060002081600052825261025560406000205433600052600684526040600020836000528452611ba56001604060002001613696565b9233600052600685526040600020816000528552611bc96002604060002001613696565b943360005260068152604060002091600052526102496003604060002001613696565b3461025957611bfa366138ea565b92909160405193611c22611c1c86888181516105ed8160209c8d80960161373a565b836138a1565b8460005285526040600020936001918260ff600a88015416151503611f2657600c860190600b8254970187600052808952604060002033600160a060020a031982541617905533600052600a895260076040600020015497600052885260406000209684880155600280970155611c998154613951565b905533600052600886526040600020600a8752600760406000200154600052865260406000209081558181019387519467ffffffffffffffff9586811161091557611ce8816115f98454613620565b88601f9a8b8311600114611eb457611d1a9291600091836117a9575050816002029160080260020a6000190419161790565b90555b80518287019186821161091557611d388261109a8554613620565b88908a8311600114611e46579180611d6d9260039695946000926117a9575050816002029160080260020a6000190419161790565b90555b0193825193841161091557611d8f84611d898754613620565b87613977565b8596808511600114611ddf575050509080600a95611dc593600092611102575050816002029160080260020a6000190419161790565b90555b336000525260076040600020016104c08154613951565b601f9492949391931983169786600052876000209260005b8a8110611e31575084600a9a10611e16575b5050505002019055611dc8565b0151908316600802840a600019041916905586808080611e09565b81830151855593870193918901918901611df7565b85919493928991601f19821696856000528c600020918d6000905b8a8210611e9a5750508360039910611e80575b50505002019055611d70565b01516008838f1602840a60001904191690558c8080611e74565b8383015185558b978f97509094019392830192018e611e61565b918a8a928894601f1984168760005283600020936000905b828210611f025750508411611ee8575b50505002019055611d1d565b01516008838f1602840a60001904191690558c8080611edc565b9294848493959850869992979901518155019501930191899593918d95938f611ecc565b6084876040519060e560020a62461bcd0282526004820152602560248201527f546869732070726f7065727479206973204e4f54206d61726b656420666f722060448201527f73616c65210000000000000000000000000000000000000000000000000000006064820152fd5b346102595760003660031901126102595733600052600a6020526040806000206007600682015491015482519182526020820152f35b34610259576020806003193601126102595760043590336000526006815260406000208260005281526120026001604060002001613696565b91336000526006825260406000208160005282526120266002604060002001613696565b336000526006835260406000208260005283526120496003604060002001613696565b91336000526006845260406000209060005283526040600020549360405190612082610a6c8251938781818601966105ed81838a61373a565b86600052855260ff600a60406000200154166120d2579161040c85610281936120b7969560405193849283925192839161373a565b6000928352905260409020600a01805460ff19166001179055005b6084856040519060e560020a62461bcd0282526004820152602160248201527f50726f706572747920616c7265616479206d61726b656420617661696c61626c60448201527f65000000000000000000000000000000000000000000000000000000000000006064820152fd5b3461025957602036600319011261025957600160a060020a038061216161360a565b16600052600460205260406000209081541661025561218260018401613696565b926121c961219e600361219760028501613696565b9301613696565b916121bb604051968796875260806020880152608087019061375d565b90858203604087015261375d565b90838203606085015261375d565b34610259576102816102816121ee610275366138ea565b90600052602052600b604060002001906000526020526020600160a060020a0360406000205416604051908152f35b34610259576101203660031901126102595761223761360a565b60243567ffffffffffffffff8111610259576122579036906004016137c1565b9060443567ffffffffffffffff8111610259576122789036906004016137c1565b9060643567ffffffffffffffff8111610259576122999036906004016137c1565b60843567ffffffffffffffff8111610259576122b99036906004016137c1565b9160a43567ffffffffffffffff8111610259576122da9036906004016137c1565b9160c43567ffffffffffffffff8111610259576122fb9036906004016137c1565b956101043567ffffffffffffffff81116102595761231d9036906004016137c1565b95600160a060020a0384166000526004602052604060002092612341600154613951565b600155835473ffffffffffffffffffffffffffffffffffffffff1916600160a060020a03861617845580519067ffffffffffffffff8211610915576123968261238d6001880154613620565b60018801613977565b602090601f83116001146128b7576123c892916000918361130e575050816002029160080260020a6000190419161790565b60018401555b80519067ffffffffffffffff8211610915576123f182610ec16002870154613620565b602090601f831160011461284457612423929160009183611290575050816002029160080260020a6000190419161790565b60028301555b80519067ffffffffffffffff8211610915576124558261244c6003860154613620565b60038601613977565b602090601f83116001146127c75782600160a060020a039594936003936124949360009261130e575050816002029160080260020a6000190419161790565b9101555b16600052600a602052604060002091600183019080519067ffffffffffffffff8211610915576124cc8261109a8554613620565b602090601f831160011461275c576124fe929160009183611178575050816002029160080260020a6000190419161790565b90555b8051600283019167ffffffffffffffff8211610915576125258261109a8554613620565b602090601f83116001146126f157612557929160009183612679575050816002029160080260020a6000190419161790565b90555b60038101835167ffffffffffffffff81116109155761257d816115f98454613620565b6020601f82116001146126845790806125b29260059697600092612679575050816002029160080260020a6000190419161790565b90555b60e4356004820155019080519067ffffffffffffffff8211610915576125df8261109a8554613620565b602090601f8311600114612611576104c0929160009183611735575050816002029160080260020a6000190419161790565b90601f198316918460005260206000209260005b81811061266157509160029391856001969410612646575b50505002019055005b01516008601f841602840a600019041916905584808061263d565b92936020600181928786015181550195019301612625565b015190508780610ee6565b601f198216958360005260206000209660005b8181106126d957509660029284926001956005999a106126be575b505050020190556125b5565b01516008601f841602840a60001904191690558780806126b2565b83830151895560019098019760209384019301612697565b90601f198316918460005260206000209260005b81811061274457509160029391856001969410612729575b5050500201905561255a565b01516008601f841602840a600019041916905587808061271d565b92936020600181928786015181550195019301612705565b90601f198316918460005260206000209260005b8181106127af57509160029391856001969410612794575b50505002019055612501565b01516008601f841602840a6000190419169055888080612788565b92936020600181928786015181550195019301612770565b906003840160005260206000209160005b601f198516811061282c575083600393600193600293600160a060020a03999897601f19811610612811575b5050500201910155612498565b01516008601f841602840a60001904191690558b8080612804565b919260206001819286850151815501940192016127d8565b906002850160005260206000209160005b601f198516811061289f5750918391600293600195601f19811610612884575b50505002016002830155612429565b01516008601f841602840a60001904191690558a8080612875565b91926020600181928685015181550194019201612855565b906001860160005260206000209160005b601f19851681106129125750918391600293600195601f198116106128f7575b505050020160018401556123ce565b01516008601f841602840a60001904191690558b80806128e8565b919260206001819286850151815501940192016128c8565b346102595760208060031936011261025957600435336000526008825260406000208160005282526102556040600020543360005260088452604060002083600052845261297e6001604060002001613696565b92336000526008855260406000208160005285526129a26002604060002001613696565b943360005260088152604060002091600052526102496003604060002001613696565b34610259576000366003190112610259576020600160a060020a0360005416604051908152f35b3461025957602036600319011261025957600160a060020a0380612a0e61360a565b166000526005602052604060002090815416612a2c60018301613696565b91612a3960028201613696565b612acb612a4860038401613696565b612abd612a5760048601613696565b612aaf612a6660058801613696565b93612aa1600760068a015499015497612a936040519c8d809d6020610100928392815201528d019061375d565b908b820360408d015261375d565b9089820360608b015261375d565b90878203608089015261375d565b9085820360a087015261375d565b9160c084015260e08301520390f35b3461025957602036600319011261025957600160a060020a0380612afc61360a565b16600052600a602052604060002090815416612b1a60018301613696565b91612b2760028201613696565b612acb612b3660038401613696565b600484015490612b94612b4b60058701613696565b91612b866007600689015498015496612b786040519b8c809c6020610100928392815201528c019061375d565b908a820360408c015261375d565b9088820360608a015261375d565b91608087015285820360a087015261375d565b346102595761016036600319011261025957612bc161360a565b60243567ffffffffffffffff811161025957612be19036906004016137c1565b9060443567ffffffffffffffff811161025957612c029036906004016137c1565b9060643567ffffffffffffffff811161025957612c239036906004016137c1565b60843567ffffffffffffffff811161025957612c439036906004016137c1565b9160a43567ffffffffffffffff811161025957612c649036906004016137c1565b9160c43567ffffffffffffffff811161025957612c859036906004016137c1565b956101043567ffffffffffffffff811161025957612ca79036906004016137c1565b956101243567ffffffffffffffff811161025957612cc99036906004016137c1565b916101443567ffffffffffffffff811161025957612ceb9036906004016137c1565b91600160a060020a0386166000526005602052604060002094612d0f600254613951565b600255855473ffffffffffffffffffffffffffffffffffffffff1916600160a060020a03881617865580519067ffffffffffffffff821161091557612d6482612d5b60018a0154613620565b60018a01613977565b602090601f831160011461342e57612d96929160009183613423575050816002029160080260020a6000190419161790565b60018601555b80519067ffffffffffffffff821161091557612dc882612dbf6002890154613620565b60028901613977565b602090601f83116001146133b057612dfa9291600091836117a9575050816002029160080260020a6000190419161790565b60028501555b80519067ffffffffffffffff821161091557612e2c82612e236003880154613620565b60038801613977565b602090601f831160011461333d57612e5e92916000918361130e575050816002029160080260020a6000190419161790565b60038401555b600560068401556001600784015580519067ffffffffffffffff821161091557612e9e82612e956005870154613620565b60058701613977565b602090601f83116001146132ca57612ed0929160009183611290575050816002029160080260020a6000190419161790565b60058301555b80519067ffffffffffffffff821161091557612f0282612ef96004860154613620565b60048601613977565b602090601f831160011461324d5782600160a060020a03959493600493612f419360009261130e575050816002029160080260020a6000190419161790565b9101555b16600052600a602052604060002091600183019080519067ffffffffffffffff821161091557612f798261109a8554613620565b602090601f83116001146131e257612fab929160009183611178575050816002029160080260020a6000190419161790565b90555b8051600283019167ffffffffffffffff821161091557612fd28261109a8554613620565b602090601f831160011461317757613004929160009183612679575050816002029160080260020a6000190419161790565b90555b60038101835167ffffffffffffffff81116109155761302a816115f98454613620565b6020601f821160011461310a57908061305f9260059697600092612679575050816002029160080260020a6000190419161790565b90555b60e4356004820155019080519067ffffffffffffffff82116109155761308c8261109a8554613620565b602090601f83116001146130be576104c0929160009183611735575050816002029160080260020a6000190419161790565b90601f198316918460005260206000209260005b8181106130f2575091600293918560019694106126465750505002019055005b929360206001819287860151815501950193016130d2565b601f198216958360005260206000209660005b81811061315f57509660029284926001956005999a10613144575b50505002019055613062565b01516008601f841602840a6000190419169055878080613138565b8383015189556001909801976020938401930161311d565b90601f198316918460005260206000209260005b8181106131ca575091600293918560019694106131af575b50505002019055613007565b01516008601f841602840a60001904191690558780806131a3565b9293602060018192878601518155019501930161318b565b90601f198316918460005260206000209260005b8181106132355750916002939185600196941061321a575b50505002019055612fae565b01516008601f841602840a600019041916905588808061320e565b929360206001819287860151815501950193016131f6565b906004840160005260206000209160005b601f19851681106132b2575083600493600193600293600160a060020a03999897601f19811610613297575b5050500201910155612f45565b01516008601f841602840a60001904191690558b808061328a565b9192602060018192868501518155019401920161325e565b906005850160005260206000209160005b601f19851681106133255750918391600293600195601f1981161061330a575b50505002016005830155612ed6565b01516008601f841602840a60001904191690558a80806132fb565b919260206001819286850151815501940192016132db565b906003860160005260206000209160005b601f19851681106133985750918391600293600195601f1981161061337d575b50505002016003840155612e64565b01516008601f841602840a60001904191690558b808061336e565b9192602060018192868501518155019401920161334e565b906002870160005260206000209160005b601f198516811061340b5750918391600293600195601f198116106133f0575b50505002016002850155612e00565b01516008601f841602840a60001904191690558c80806133e1565b919260206001819286850151815501940192016133c1565b015190508d80610ee6565b906001880160005260206000209160005b601f19851681106134895750918391600293600195601f1981161061346e575b50505002016001860155612d9c565b01516008601f841602840a60001904191690558d808061345f565b9192602060018192868501518155019401920161343f565b346102595761040c6134d360206102816134ba36613818565b969192856040969296519382858094519384920161373a565b906000526020526040600020600160a060020a039081815416906134f960018201613696565b9261350660028301613696565b906003830154169161351a60048201613696565b600582015493600683015460078401549061358c60ff60088701541693600987015495613579600c60ff600a8b0154169901549961356b6040519e8f9e8f610180918152816020820152019061375d565b8d810360408f01529061375d565b9160608c01528a820360808c015261375d565b9660a089015260c088015260e0870152151561010086015261012085015215156101408401526101608301520390f35b3461025957604036600319011261025957600160a060020a036135dd61360a565b166000526008602052604060002060243560005260205260406000208054610255610bb560018401613696565b60043590600160a060020a038216820361025957565b906001600283049216801561366a575b602083101461363b57565b7f4e487b7100000000000000000000000000000000000000000000000000000000600052602260045260246000fd5b91607f1691613630565b90601f8019910116810190811067ffffffffffffffff82111761091557604052565b906040519182600082546136a981613620565b9081845260209460019160018116908160001461371957506001146136da575b5050506136d892500383613674565b565b600090815285812095935091905b8183106137015750506136d893508201013880806136c9565b855488840185015294850194879450918301916136e8565b925050506136d894925060ff191682840152151581028201013880806136c9565b60005b83811061374d5750506000910152565b818101518382015260200161373d565b906020916137768151809281855285808601910161373a565b601f01601f1916010190565b926137a26137be95936137b093865260806020870152608086019061375d565b90848203604086015261375d565b91606081840391015261375d565b90565b81601f820112156102595780359067ffffffffffffffff821161091557604051926137f6601f8401601f191660200185613674565b8284526020838301011161025957816000926020809301838601378301015290565b60806003198201126102595767ffffffffffffffff916004358381116102595782613845916004016137c1565b92602435818111610259578361385d916004016137c1565b9260443591821161025957613874916004016137c1565b9060643590565b602061389491816040519382858094519384920161373a565b8101600981520301902090565b6020906138bb92826040519483868095519384920161373a565b82019081520301902090565b949392611a6c606093611b306138e59460808a5260808a019061375d565b930152565b60a06003198201126102595767ffffffffffffffff916004358381116102595782613917916004016137c1565b92602435818111610259578361392f916004016137c1565b9260443591821161025957613946916004016137c1565b906064359060843590565b60001981146104c45760010190565b81811061396b575050565b60008155600101613960565b9190601f811161398657505050565b6136d892600052602060002090602080601f850104830193106139b2575b601f60209101040190613960565b90915081906139a4565b33600052600460205233600160a060020a0360406000205416146000146139e257600190565b600090565b6000929181546139f681613620565b92600191808316908115613a505750600114613a13575b50505050565b9091929394506000526020906020600020906000915b858310613a3f5750505050019038808080613a0d565b805485840152918301918101613a29565b60ff1916845250505081151590910201915038808080613a0d565b613a758154613620565b9081613a7f575050565b81601f60009311600114613a91575055565b908083918252613aaf6020601f818520950104840160018501613960565b5555565b33600052600560205233600160a060020a0360406000205416146000146139e257600190565b9291613afb90610281604093604051602081895161040c818385809e0161373a565b60009283526020526040822090600c8201548015613b555791600b01835b838110613b295750505050905090565b80855281865233600160a060020a03848720541614613b4a57600101613b19565b505050505050600190565b50505090509056fea2646970667358221220b3292a8fcda39d688fcdd9444992487546c6d469699415fad776d3473c49283c64736f6c63430008170033",
  "immutableReferences": {},
  "source": "// SPDX-License-Identifier: MIT\n\npragma solidity >=0.5.0 <0.9.0;\n\ncontract Registry {\n    address public superAdmin;\n    uint256 public totalAdmins;\n    uint256 public totalVendors;\n    uint256 public totalTendors = 1000;\n\n    struct Admin {\n        address adminAddress;\n        string city;\n        string district;\n        string state;\n    }\n\n    struct Vendor {\n        address vendorAddress;\n        string city;\n        string district;\n        string state;\n        string year;\n        string vendortype;\n        uint256 rating;\n        uint256 noofRaters;\n    }\n\n    struct LandDetails {\n        address owner;\n        string tendertype;\n        string tenderName;\n        address admin;\n        string ipfsuri;\n        uint256 propertyId;\n        uint256 surveyNumber;\n        uint256 index;\n        bool registered;\n        uint256 marketValue;\n        bool markAvailable;\n        mapping(uint256 => RequestDetails) requests; // reqNo => RequestDetails\n        uint256 noOfRequests; // other users requested to this land\n    }\n\n\n\n    struct UserProfile {\n        address userAddr;\n        string fullName;\n        string gender;\n        string email;\n        uint256 contact;\n        string residentialAddr;\n        uint256 totalIndices;\n        uint256 requestIndices; // this user requested to other lands\n    }\n\n    struct OwnerOwns {\n        uint256 surveyNumber;\n        string state;\n        string district;\n        string city;\n    }\n\n    struct AdminOwns {\n        uint256 surveyNo;\n        string state;\n        string district;\n        string city;\n        address AllocatedTo;\n    }\n\n    struct RequestedLands {\n        uint256 surveyNumber;\n        string state;\n        string district;\n        string city;\n    }\n\n    struct RequestDetails {\n        address whoRequested;\n        uint256 reqIndex;\n        uint256 BidAmount;\n    }\n\n    mapping(address => Admin) public admins;\n    mapping(address => Vendor) public vendors;\n    mapping(address => mapping(uint256 => OwnerOwns)) public ownerMapsProperty;\n    mapping(address => mapping(uint256 => AdminOwns)) public adminMapsProperty; // ownerAddr => index no. => OwnerOwns\n    mapping(address => mapping(uint256 => RequestedLands))\n        public requestedLands; // ownerAddr => reqIndex => RequestedLands\n    mapping(string => mapping(string => mapping(string => mapping(uint256 => LandDetails))))\n        public landDetalsMap; // state => district => city => surveyNo => LandDetails\n    mapping(address => UserProfile) public userProfile;\n\n    constructor() {\n        superAdmin = msg.sender;\n    }\n\n    modifier onlyAdmin() {\n        require(\n            admins[msg.sender].adminAddress == msg.sender,\n            \"Only admin can Register land\"\n        );\n        _;\n    }\n\n    // SuperAdmin: Registers new admin\n    function addAdmin(\n        address _adminAddr,\n        string memory _state,\n        string memory _district,\n        string memory _city,\n        string memory _fullName,\n        string memory _gender,\n        string memory _email,\n        uint256 _contact,\n        string memory _residentialAddr\n    ) external {\n        Admin storage newAdmin = admins[_adminAddr];\n        totalAdmins++;\n\n        newAdmin.adminAddress = _adminAddr;\n        newAdmin.city = _city;\n        newAdmin.district = _district;\n        newAdmin.state = _state;\n\n        UserProfile storage newUserProfile = userProfile[_adminAddr];\n\n        newUserProfile.fullName = _fullName;\n        newUserProfile.gender = _gender;\n        newUserProfile.email = _email;\n        newUserProfile.contact = _contact;\n        newUserProfile.residentialAddr = _residentialAddr;\n    }\n\n    function addVendor(\n        address _vendorAddr,\n        string memory _state,\n        string memory _district,\n        string memory _city,\n        string memory _fullName,\n        string memory _gender,\n        string memory _email,\n        uint256 _contact,\n        string memory _residentialAddr,\n        string memory _year,\n        string memory _vendortype\n    ) external {\n        Vendor storage newVendor = vendors[_vendorAddr];\n        totalVendors++;\n\n        newVendor.vendorAddress = _vendorAddr;\n        newVendor.city = _city;\n        newVendor.district = _district;\n        newVendor.state = _state;\n        newVendor.rating = 5;\n        newVendor.noofRaters = 1;\n        newVendor.vendortype = _vendortype;\n        newVendor.year = _year;\n\n        UserProfile storage newUserProfile = userProfile[_vendorAddr];\n\n        newUserProfile.fullName = _fullName;\n        newUserProfile.gender = _gender;\n        newUserProfile.email = _email;\n        newUserProfile.contact = _contact;\n        newUserProfile.residentialAddr = _residentialAddr;\n    }\n\n    //function Give Rating\n    function GiveRating(address _vendortorating, uint256 _ratenumber) public {\n        vendors[_vendortorating].rating =\n            vendors[_vendortorating].rating +\n            _ratenumber;\n        vendors[_vendortorating].noofRaters++;\n    }\n\n    // check if it is admin\n    function isAdmin() external view returns (bool) {\n        if (admins[msg.sender].adminAddress == msg.sender) {\n            return true;\n        } else return false;\n    }\n\n    //Chekc if it is Vendor\n    function isVendor() external view returns (bool) {\n        if (vendors[msg.sender].vendorAddress == msg.sender) {\n            return true;\n        } else return false;\n    }\n\n    // Admin: registers land\n    function registerLand(\n        string memory _state,\n        string memory _district,\n        string memory _city,\n        uint256 _propertyId,\n        uint256 _surveyNo,\n        address _owner,\n        uint256 _marketValue,\n        string memory _tenderName,\n        string memory _tendertype\n    ) external onlyAdmin {\n        require(\n            keccak256(abi.encodePacked(admins[msg.sender].state)) ==\n                keccak256(abi.encodePacked(_state)) &&\n                keccak256(abi.encodePacked(admins[msg.sender].district)) ==\n                keccak256(abi.encodePacked(_district)) &&\n                keccak256(abi.encodePacked(admins[msg.sender].city)) ==\n                keccak256(abi.encodePacked(_city)),\n            \"Admin can only register land of same city.\"\n        );\n\n        require(\n            landDetalsMap[_state][_district][_city][totalTendors].registered ==\n                false,\n            \"Survey Number already registered!\"\n        );\n\n        LandDetails storage newLandRegistry = landDetalsMap[_state][_district][\n            _city\n        ][totalTendors];\n\n        OwnerOwns storage newOwnerOwns = ownerMapsProperty[msg.sender][\n            userProfile[msg.sender].totalIndices\n        ];\n\n        AdminOwns storage newAdminOwns = adminMapsProperty[msg.sender][\n            userProfile[msg.sender].totalIndices\n        ];\n\n        newLandRegistry.owner = _owner;\n        newLandRegistry.admin = msg.sender;\n        newLandRegistry.propertyId = _propertyId;\n        newLandRegistry.surveyNumber = totalTendors;\n        newLandRegistry.index = userProfile[_owner].totalIndices;\n        newLandRegistry.registered = true;\n        newLandRegistry.marketValue = _marketValue;\n        newLandRegistry.markAvailable = true;\n        newLandRegistry.tenderName = _tenderName;\n        newLandRegistry.tendertype = _tendertype;\n        newLandRegistry.ipfsuri = \"No URI\";\n\n        newOwnerOwns.surveyNumber = totalTendors;\n        newOwnerOwns.state = _state;\n        newOwnerOwns.district = _district;\n        newOwnerOwns.city = _city;\n\n        userProfile[_owner].totalIndices++;\n\n        totalTendors++;\n    }\n\n    // User_1: set user profile\n    function setUserProfile(\n        string memory _fullName,\n        string memory _gender,\n        string memory _email,\n        uint256 _contact,\n        string memory _residentialAddr\n    ) public {\n        UserProfile storage newUserProfile = userProfile[msg.sender];\n\n        newUserProfile.fullName = _fullName;\n        newUserProfile.gender = _gender;\n        newUserProfile.email = _email;\n        newUserProfile.contact = _contact;\n        newUserProfile.residentialAddr = _residentialAddr;\n    }\n\n    // User_1: mark property available\n    function markMyPropertyAvailable(uint256 indexNo) external {\n        string memory state = ownerMapsProperty[msg.sender][indexNo].state;\n        string memory district = ownerMapsProperty[msg.sender][indexNo]\n            .district;\n        string memory city = ownerMapsProperty[msg.sender][indexNo].city;\n        uint256 surveyNumber = ownerMapsProperty[msg.sender][indexNo]\n            .surveyNumber;\n\n        require(\n            landDetalsMap[state][district][city][surveyNumber].markAvailable ==\n                false,\n            \"Property already marked available\"\n        );\n\n        landDetalsMap[state][district][city][surveyNumber].markAvailable = true;\n    }\n\n    // User_2: Request for buy  ownerAddress & index = arguements\n    function RequestForBuy(\n        string memory _state,\n        string memory _district,\n        string memory _city,\n        uint256 _surveyNo,\n        uint256 _BidAmount\n    ) external {\n        LandDetails storage thisLandDetail = landDetalsMap[_state][_district][\n            _city\n        ][_surveyNo];\n        require(\n            thisLandDetail.markAvailable == true,\n            \"This property is NOT marked for sale!\"\n        );\n\n        uint256 req_serialNum = thisLandDetail.noOfRequests;\n        thisLandDetail.requests[req_serialNum].whoRequested = msg.sender;\n        thisLandDetail.requests[req_serialNum].reqIndex = userProfile[\n            msg.sender\n        ].requestIndices;\n        thisLandDetail.requests[req_serialNum].BidAmount = _BidAmount;\n        thisLandDetail.noOfRequests++;\n\n        // adding requested land to user_2 profile\n        RequestedLands storage newReqestedLands = requestedLands[msg.sender][\n            userProfile[msg.sender].requestIndices\n        ];\n        newReqestedLands.surveyNumber = _surveyNo;\n        newReqestedLands.state = _state;\n        newReqestedLands.district = _district;\n        newReqestedLands.city = _city;\n\n        userProfile[msg.sender].requestIndices++;\n    }\n\n    // User_1: Accept the buy request; sell.\n    function AcceptRequest(uint256 _index, uint256 _reqNo) public {\n        uint256 _surveyNo = ownerMapsProperty[msg.sender][_index].surveyNumber;\n        string memory _state = ownerMapsProperty[msg.sender][_index].state;\n        string memory _district = ownerMapsProperty[msg.sender][_index]\n            .district;\n        string memory _city = ownerMapsProperty[msg.sender][_index].city;\n\n        // updating LandDetails\n        address newOwner = landDetalsMap[_state][_district][_city][\n            _surveyNo\n        ].requests[_reqNo].whoRequested;\n\n        uint256 newOwner_reqIndex = landDetalsMap[_state][_district][_city][\n            _surveyNo\n        ].requests[_reqNo].reqIndex;\n\n        uint256 noOfReq = landDetalsMap[_state][_district][_city][_surveyNo]\n            .noOfRequests;\n\n        // deleting requested land from all requesters AND removing all incoming requests\n        for (uint256 i = 0; i < noOfReq; i++) {\n            address requesterAddr = landDetalsMap[_state][_district][_city][\n                _surveyNo\n            ].requests[i].whoRequested;\n            uint256 requester_reqIndx = landDetalsMap[_state][_district][_city][\n                _surveyNo\n            ].requests[i].reqIndex;\n\n            delete requestedLands[requesterAddr][requester_reqIndx];\n            delete landDetalsMap[_state][_district][_city][_surveyNo].requests[\n                i\n            ];\n        }\n\n        landDetalsMap[_state][_district][_city][_surveyNo].owner = newOwner;\n        landDetalsMap[_state][_district][_city][_surveyNo]\n            .markAvailable = false;\n        landDetalsMap[_state][_district][_city][_surveyNo].noOfRequests = 0;\n\n        // deleting property from user_1's ownerMapsProperty\n        // delete ownerMapsProperty[msg.sender][_index];\n\n        // adding ownerMapsProperty for newOwner\n        uint256 newOwnerTotProp = userProfile[newOwner].totalIndices;\n        OwnerOwns storage newOwnerOwns = ownerMapsProperty[newOwner][\n            newOwnerTotProp\n        ];\n\n        newOwnerOwns.surveyNumber = _surveyNo;\n        newOwnerOwns.state = _state;\n        newOwnerOwns.district = _district;\n        newOwnerOwns.city = _city;\n\n        landDetalsMap[_state][_district][_city][_surveyNo]\n            .index = newOwnerTotProp;\n\n        userProfile[newOwner].totalIndices++;\n    }\n\n    //******* GETTERS **********\n\n    // return land details\n    function getLandDetails(\n        string memory _state,\n        string memory _district,\n        string memory _city,\n        uint256 _surveyNo\n    )\n        external\n        view\n        returns (\n            address,\n            uint256,\n            uint256,\n            uint256\n        )\n    {\n        address owner = landDetalsMap[_state][_district][_city][_surveyNo]\n            .owner;\n        uint256 propertyid = landDetalsMap[_state][_district][_city][_surveyNo]\n            .propertyId;\n        uint256 indx = landDetalsMap[_state][_district][_city][_surveyNo].index;\n        uint256 mv = landDetalsMap[_state][_district][_city][_surveyNo]\n            .marketValue;\n\n        return (owner, propertyid, indx, mv);\n    }\n\n    function getRequestCnt_propId(\n        string memory _state,\n        string memory _district,\n        string memory _city,\n        uint256 _surveyNo\n    ) external view returns (uint256, uint256) {\n        uint256 _noOfRequests = landDetalsMap[_state][_district][_city][\n            _surveyNo\n        ].noOfRequests;\n        uint256 _propertyId = landDetalsMap[_state][_district][_city][_surveyNo]\n            .propertyId;\n        return (_noOfRequests, _propertyId);\n    }\n\n    function getRequesterDetail(\n        string memory _state,\n        string memory _district,\n        string memory _city,\n        uint256 _surveyNo,\n        uint256 _reqIndex\n    )\n        external\n        view\n        returns (\n            address\n        )\n    {\n        address requester = landDetalsMap[_state][_district][_city][_surveyNo]\n            .requests[_reqIndex]\n            .whoRequested;\n\n        return (requester);\n    }\n\n    function getRequesterBidAmount(\n        string memory _state,\n        string memory _district,\n        string memory _city,\n        uint256 _surveyNo,\n        uint256 _reqIndex\n    )\n        external\n        view\n        returns (\n            uint256\n        )\n    {\n\n        uint256 BidAmount = landDetalsMap[_state][_district][_city][_surveyNo]\n            .requests[_reqIndex]\n            .BidAmount;\n\n        return (BidAmount);\n    }\n\n    function getRequesterName(\n        string memory _state,\n        string memory _district,\n        string memory _city,\n        uint256 _surveyNo,\n        uint256 _reqIndex\n    )\n        external\n        view\n        returns (\n            string memory\n        )\n    {\n        address requester = landDetalsMap[_state][_district][_city][_surveyNo]\n            .requests[_reqIndex]\n            .whoRequested;\n        \n        string memory NameofRequester = userProfile[requester].fullName;\n        return (NameofRequester);\n    }\n\n    function isAvailable(\n        string memory _state,\n        string memory _district,\n        string memory _city,\n        uint256 _surveyNo\n    ) external view returns (bool) {\n        bool available = landDetalsMap[_state][_district][_city][_surveyNo]\n            .markAvailable;\n        return (available);\n    }\n\n    function getOwnerOwns(uint256 indx)\n        external\n        view\n        returns (\n            string memory,\n            string memory,\n            string memory,\n            uint256\n        )\n    {\n        uint256 surveyNo = ownerMapsProperty[msg.sender][indx].surveyNumber;\n        string memory state = ownerMapsProperty[msg.sender][indx].state;\n        string memory district = ownerMapsProperty[msg.sender][indx].district;\n        string memory city = ownerMapsProperty[msg.sender][indx].city;\n\n        return (state, district, city, surveyNo);\n    }\n\n    function getAdminOwns(uint256 indx)\n        external\n        view\n        returns (\n            string memory,\n            string memory,\n            string memory,\n            uint256\n        )\n    {\n        uint256 surveyNo = adminMapsProperty[msg.sender][indx].surveyNo;\n        string memory state = adminMapsProperty[msg.sender][indx].state;\n        string memory district = adminMapsProperty[msg.sender][indx].district;\n        string memory city = adminMapsProperty[msg.sender][indx].city;\n\n        return (state, district, city, surveyNo);\n    }\n\n    function getRequestedLands(uint256 indx)\n        external\n        view\n        returns (\n            string memory,\n            string memory,\n            string memory,\n            uint256\n        )\n    {\n        uint256 surveyNo = requestedLands[msg.sender][indx].surveyNumber;\n        string memory state = requestedLands[msg.sender][indx].state;\n        string memory district = requestedLands[msg.sender][indx].district;\n        string memory city = requestedLands[msg.sender][indx].city;\n\n        return (state, district, city, surveyNo);\n    }\n\n    function getUserProfile()\n        external\n        view\n        returns (\n            string memory,\n            string memory,\n            string memory,\n            uint256,\n            string memory\n        )\n    {\n        string memory fullName = userProfile[msg.sender].fullName;\n        string memory gender = userProfile[msg.sender].gender;\n        string memory email = userProfile[msg.sender].email;\n        uint256 contact = userProfile[msg.sender].contact;\n        string memory residentialAddr = userProfile[msg.sender].residentialAddr;\n\n        return (fullName, gender, email, contact, residentialAddr);\n    }\n\n    function getIndices() external view returns (uint256, uint256) {\n        uint256 _totalIndices = userProfile[msg.sender].totalIndices;\n        uint256 _reqIndices = userProfile[msg.sender].requestIndices;\n\n        return (_totalIndices, _reqIndices);\n    }\n\n    function didIRequested(\n        string memory _state,\n        string memory _district,\n        string memory _city,\n        uint256 _surveyNo\n    ) external view returns (bool) {\n        LandDetails storage thisLandDetail = landDetalsMap[_state][_district][\n            _city\n        ][_surveyNo];\n        uint256 _noOfRequests = thisLandDetail.noOfRequests;\n\n        if (_noOfRequests == 0) return (false);\n\n        for (uint256 i = 0; i < _noOfRequests; i++) {\n            if (thisLandDetail.requests[i].whoRequested == msg.sender) {\n                return (true);\n            }\n        }\n\n        return (false);\n    }\n\n    function getTotalTendors()\n    external view returns(uint256)\n    {\n        return(totalTendors);\n    }\n}",
  "sourcePath": "E:\\VIT PUNE\\TY SEM 1\\EDI\\Nov\\land-registry-master\\contracts\\Registry.sol",
  "compiler": {
    "name": "solc",
    "version": "0.8.23+commit.f704f362.Emscripten.clang"
  },
  "schemaVersion": "3.4.13",
  "updatedAt": "2023-11-09T11:52:11.086Z",
  "networkType": "ethereum",
  "devdoc": {
    "kind": "dev",
    "methods": {},
    "version": 1
  },
  "userdoc": {
    "kind": "user",
    "methods": {},
    "version": 1
  }
}