{
  "contractName": "Registry",
  "abi": [
    {
      "inputs": [],
      "stateMutability": "nonpayable",
      "type": "constructor"
    },
    {
      "inputs": [
        {
          "internalType": "address",
          "name": "",
          "type": "address"
        },
        {
          "internalType": "uint256",
          "name": "",
          "type": "uint256"
        }
      ],
      "name": "adminMapsProperty",
      "outputs": [
        {
          "internalType": "uint256",
          "name": "surveyNo",
          "type": "uint256"
        },
        {
          "internalType": "string",
          "name": "state",
          "type": "string"
        },
        {
          "internalType": "string",
          "name": "district",
          "type": "string"
        },
        {
          "internalType": "string",
          "name": "city",
          "type": "string"
        },
        {
          "internalType": "address",
          "name": "AllocatedTo",
          "type": "address"
        }
      ],
      "stateMutability": "view",
      "type": "function",
      "constant": true
    },
    {
      "inputs": [
        {
          "internalType": "address",
          "name": "",
          "type": "address"
        }
      ],
      "name": "admins",
      "outputs": [
        {
          "internalType": "address",
          "name": "adminAddress",
          "type": "address"
        },
        {
          "internalType": "string",
          "name": "city",
          "type": "string"
        },
        {
          "internalType": "string",
          "name": "district",
          "type": "string"
        },
        {
          "internalType": "string",
          "name": "state",
          "type": "string"
        }
      ],
      "stateMutability": "view",
      "type": "function",
      "constant": true
    },
    {
      "inputs": [
        {
          "internalType": "string",
          "name": "",
          "type": "string"
        },
        {
          "internalType": "string",
          "name": "",
          "type": "string"
        },
        {
          "internalType": "string",
          "name": "",
          "type": "string"
        },
        {
          "internalType": "uint256",
          "name": "",
          "type": "uint256"
        }
      ],
      "name": "landDetalsMap",
      "outputs": [
        {
          "internalType": "address",
          "name": "owner",
          "type": "address"
        },
        {
          "internalType": "string",
          "name": "tendertype",
          "type": "string"
        },
        {
          "internalType": "string",
          "name": "tenderName",
          "type": "string"
        },
        {
          "internalType": "address",
          "name": "admin",
          "type": "address"
        },
        {
          "internalType": "string",
          "name": "ipfsuri",
          "type": "string"
        },
        {
          "internalType": "uint256",
          "name": "propertyId",
          "type": "uint256"
        },
        {
          "internalType": "uint256",
          "name": "surveyNumber",
          "type": "uint256"
        },
        {
          "internalType": "uint256",
          "name": "index",
          "type": "uint256"
        },
        {
          "internalType": "bool",
          "name": "registered",
          "type": "bool"
        },
        {
          "internalType": "uint256",
          "name": "marketValue",
          "type": "uint256"
        },
        {
          "internalType": "bool",
          "name": "markAvailable",
          "type": "bool"
        },
        {
          "internalType": "uint256",
          "name": "noOfRequests",
          "type": "uint256"
        }
      ],
      "stateMutability": "view",
      "type": "function",
      "constant": true
    },
    {
      "inputs": [
        {
          "internalType": "address",
          "name": "",
          "type": "address"
        },
        {
          "internalType": "uint256",
          "name": "",
          "type": "uint256"
        }
      ],
      "name": "ownerMapsProperty",
      "outputs": [
        {
          "internalType": "uint256",
          "name": "surveyNumber",
          "type": "uint256"
        },
        {
          "internalType": "string",
          "name": "state",
          "type": "string"
        },
        {
          "internalType": "string",
          "name": "district",
          "type": "string"
        },
        {
          "internalType": "string",
          "name": "city",
          "type": "string"
        }
      ],
      "stateMutability": "view",
      "type": "function",
      "constant": true
    },
    {
      "inputs": [
        {
          "internalType": "address",
          "name": "",
          "type": "address"
        },
        {
          "internalType": "uint256",
          "name": "",
          "type": "uint256"
        }
      ],
      "name": "requestedLands",
      "outputs": [
        {
          "internalType": "uint256",
          "name": "surveyNumber",
          "type": "uint256"
        },
        {
          "internalType": "string",
          "name": "state",
          "type": "string"
        },
        {
          "internalType": "string",
          "name": "district",
          "type": "string"
        },
        {
          "internalType": "string",
          "name": "city",
          "type": "string"
        }
      ],
      "stateMutability": "view",
      "type": "function",
      "constant": true
    },
    {
      "inputs": [],
      "name": "superAdmin",
      "outputs": [
        {
          "internalType": "address",
          "name": "",
          "type": "address"
        }
      ],
      "stateMutability": "view",
      "type": "function",
      "constant": true
    },
    {
      "inputs": [],
      "name": "totalAdmins",
      "outputs": [
        {
          "internalType": "uint256",
          "name": "",
          "type": "uint256"
        }
      ],
      "stateMutability": "view",
      "type": "function",
      "constant": true
    },
    {
      "inputs": [],
      "name": "totalVendors",
      "outputs": [
        {
          "internalType": "uint256",
          "name": "",
          "type": "uint256"
        }
      ],
      "stateMutability": "view",
      "type": "function",
      "constant": true
    },
    {
      "inputs": [
        {
          "internalType": "address",
          "name": "",
          "type": "address"
        }
      ],
      "name": "userProfile",
      "outputs": [
        {
          "internalType": "address",
          "name": "userAddr",
          "type": "address"
        },
        {
          "internalType": "string",
          "name": "fullName",
          "type": "string"
        },
        {
          "internalType": "string",
          "name": "gender",
          "type": "string"
        },
        {
          "internalType": "string",
          "name": "email",
          "type": "string"
        },
        {
          "internalType": "uint256",
          "name": "contact",
          "type": "uint256"
        },
        {
          "internalType": "string",
          "name": "residentialAddr",
          "type": "string"
        },
        {
          "internalType": "uint256",
          "name": "totalIndices",
          "type": "uint256"
        },
        {
          "internalType": "uint256",
          "name": "requestIndices",
          "type": "uint256"
        }
      ],
      "stateMutability": "view",
      "type": "function",
      "constant": true
    },
    {
      "inputs": [
        {
          "internalType": "address",
          "name": "",
          "type": "address"
        }
      ],
      "name": "vendors",
      "outputs": [
        {
          "internalType": "address payable",
          "name": "vendorAddress",
          "type": "address"
        },
        {
          "internalType": "string",
          "name": "city",
          "type": "string"
        },
        {
          "internalType": "string",
          "name": "district",
          "type": "string"
        },
        {
          "internalType": "string",
          "name": "state",
          "type": "string"
        },
        {
          "internalType": "string",
          "name": "year",
          "type": "string"
        },
        {
          "internalType": "string",
          "name": "vendortype",
          "type": "string"
        },
        {
          "internalType": "uint256",
          "name": "rating",
          "type": "uint256"
        },
        {
          "internalType": "uint256",
          "name": "noofRaters",
          "type": "uint256"
        }
      ],
      "stateMutability": "view",
      "type": "function",
      "constant": true
    },
    {
      "inputs": [
        {
          "internalType": "address",
          "name": "_adminAddr",
          "type": "address"
        },
        {
          "internalType": "string",
          "name": "_state",
          "type": "string"
        },
        {
          "internalType": "string",
          "name": "_district",
          "type": "string"
        },
        {
          "internalType": "string",
          "name": "_city",
          "type": "string"
        },
        {
          "internalType": "string",
          "name": "_fullName",
          "type": "string"
        },
        {
          "internalType": "string",
          "name": "_gender",
          "type": "string"
        },
        {
          "internalType": "string",
          "name": "_email",
          "type": "string"
        },
        {
          "internalType": "uint256",
          "name": "_contact",
          "type": "uint256"
        },
        {
          "internalType": "string",
          "name": "_residentialAddr",
          "type": "string"
        }
      ],
      "name": "addAdmin",
      "outputs": [],
      "stateMutability": "nonpayable",
      "type": "function"
    },
    {
      "inputs": [
        {
          "internalType": "address payable",
          "name": "_vendorAddr",
          "type": "address"
        },
        {
          "internalType": "string",
          "name": "_state",
          "type": "string"
        },
        {
          "internalType": "string",
          "name": "_district",
          "type": "string"
        },
        {
          "internalType": "string",
          "name": "_city",
          "type": "string"
        },
        {
          "internalType": "string",
          "name": "_fullName",
          "type": "string"
        },
        {
          "internalType": "string",
          "name": "_gender",
          "type": "string"
        },
        {
          "internalType": "string",
          "name": "_email",
          "type": "string"
        },
        {
          "internalType": "uint256",
          "name": "_contact",
          "type": "uint256"
        },
        {
          "internalType": "string",
          "name": "_residentialAddr",
          "type": "string"
        },
        {
          "internalType": "string",
          "name": "_year",
          "type": "string"
        },
        {
          "internalType": "string",
          "name": "_vendortype",
          "type": "string"
        }
      ],
      "name": "addVendor",
      "outputs": [],
      "stateMutability": "nonpayable",
      "type": "function"
    },
    {
      "inputs": [
        {
          "internalType": "address",
          "name": "_vendortorating",
          "type": "address"
        },
        {
          "internalType": "uint256",
          "name": "_ratenumber",
          "type": "uint256"
        }
      ],
      "name": "GiveRating",
      "outputs": [],
      "stateMutability": "nonpayable",
      "type": "function"
    },
    {
      "inputs": [],
      "name": "isAdmin",
      "outputs": [
        {
          "internalType": "bool",
          "name": "",
          "type": "bool"
        }
      ],
      "stateMutability": "view",
      "type": "function",
      "constant": true
    },
    {
      "inputs": [],
      "name": "isVendor",
      "outputs": [
        {
          "internalType": "bool",
          "name": "",
          "type": "bool"
        }
      ],
      "stateMutability": "view",
      "type": "function",
      "constant": true
    },
    {
      "inputs": [
        {
          "internalType": "string",
          "name": "_state",
          "type": "string"
        },
        {
          "internalType": "string",
          "name": "_district",
          "type": "string"
        },
        {
          "internalType": "string",
          "name": "_city",
          "type": "string"
        },
        {
          "internalType": "uint256",
          "name": "_propertyId",
          "type": "uint256"
        },
        {
          "internalType": "uint256",
          "name": "_surveyNo",
          "type": "uint256"
        },
        {
          "internalType": "address",
          "name": "_owner",
          "type": "address"
        },
        {
          "internalType": "uint256",
          "name": "_marketValue",
          "type": "uint256"
        },
        {
          "internalType": "string",
          "name": "_tenderName",
          "type": "string"
        },
        {
          "internalType": "string",
          "name": "_tendertype",
          "type": "string"
        }
      ],
      "name": "registerLand",
      "outputs": [],
      "stateMutability": "nonpayable",
      "type": "function"
    },
    {
      "inputs": [
        {
          "internalType": "string",
          "name": "_fullName",
          "type": "string"
        },
        {
          "internalType": "string",
          "name": "_gender",
          "type": "string"
        },
        {
          "internalType": "string",
          "name": "_email",
          "type": "string"
        },
        {
          "internalType": "uint256",
          "name": "_contact",
          "type": "uint256"
        },
        {
          "internalType": "string",
          "name": "_residentialAddr",
          "type": "string"
        }
      ],
      "name": "setUserProfile",
      "outputs": [],
      "stateMutability": "nonpayable",
      "type": "function"
    },
    {
      "inputs": [
        {
          "internalType": "uint256",
          "name": "indexNo",
          "type": "uint256"
        }
      ],
      "name": "markMyPropertyAvailable",
      "outputs": [],
      "stateMutability": "nonpayable",
      "type": "function"
    },
    {
      "inputs": [
        {
          "internalType": "string",
          "name": "_state",
          "type": "string"
        },
        {
          "internalType": "string",
          "name": "_district",
          "type": "string"
        },
        {
          "internalType": "string",
          "name": "_city",
          "type": "string"
        },
        {
          "internalType": "uint256",
          "name": "_surveyNo",
          "type": "uint256"
        },
        {
          "internalType": "uint256",
          "name": "_BidAmount",
          "type": "uint256"
        }
      ],
      "name": "RequestForBuy",
      "outputs": [],
      "stateMutability": "nonpayable",
      "type": "function"
    },
    {
      "inputs": [
        {
          "internalType": "uint256",
          "name": "_index",
          "type": "uint256"
        },
        {
          "internalType": "uint256",
          "name": "_reqNo",
          "type": "uint256"
        }
      ],
      "name": "AcceptRequest",
      "outputs": [],
      "stateMutability": "payable",
      "type": "function",
      "payable": true
    },
    {
      "inputs": [
        {
          "internalType": "string",
          "name": "_state",
          "type": "string"
        },
        {
          "internalType": "string",
          "name": "_district",
          "type": "string"
        },
        {
          "internalType": "string",
          "name": "_city",
          "type": "string"
        },
        {
          "internalType": "uint256",
          "name": "_surveyNo",
          "type": "uint256"
        }
      ],
      "name": "getLandDetails",
      "outputs": [
        {
          "internalType": "address",
          "name": "",
          "type": "address"
        },
        {
          "internalType": "uint256",
          "name": "",
          "type": "uint256"
        },
        {
          "internalType": "uint256",
          "name": "",
          "type": "uint256"
        },
        {
          "internalType": "uint256",
          "name": "",
          "type": "uint256"
        }
      ],
      "stateMutability": "view",
      "type": "function",
      "constant": true
    },
    {
      "inputs": [
        {
          "internalType": "string",
          "name": "_state",
          "type": "string"
        },
        {
          "internalType": "string",
          "name": "_district",
          "type": "string"
        },
        {
          "internalType": "string",
          "name": "_city",
          "type": "string"
        },
        {
          "internalType": "uint256",
          "name": "_surveyNo",
          "type": "uint256"
        }
      ],
      "name": "getRequestCnt_propId",
      "outputs": [
        {
          "internalType": "uint256",
          "name": "",
          "type": "uint256"
        },
        {
          "internalType": "uint256",
          "name": "",
          "type": "uint256"
        }
      ],
      "stateMutability": "view",
      "type": "function",
      "constant": true
    },
    {
      "inputs": [
        {
          "internalType": "string",
          "name": "_state",
          "type": "string"
        },
        {
          "internalType": "string",
          "name": "_district",
          "type": "string"
        },
        {
          "internalType": "string",
          "name": "_city",
          "type": "string"
        },
        {
          "internalType": "uint256",
          "name": "_surveyNo",
          "type": "uint256"
        },
        {
          "internalType": "uint256",
          "name": "_reqIndex",
          "type": "uint256"
        }
      ],
      "name": "getRequesterDetail",
      "outputs": [
        {
          "internalType": "address",
          "name": "",
          "type": "address"
        },
        {
          "internalType": "uint256",
          "name": "",
          "type": "uint256"
        },
        {
          "internalType": "string",
          "name": "",
          "type": "string"
        }
      ],
      "stateMutability": "view",
      "type": "function",
      "constant": true
    },
    {
      "inputs": [
        {
          "internalType": "string",
          "name": "_state",
          "type": "string"
        },
        {
          "internalType": "string",
          "name": "_district",
          "type": "string"
        },
        {
          "internalType": "string",
          "name": "_city",
          "type": "string"
        },
        {
          "internalType": "uint256",
          "name": "_surveyNo",
          "type": "uint256"
        }
      ],
      "name": "isAvailable",
      "outputs": [
        {
          "internalType": "bool",
          "name": "",
          "type": "bool"
        }
      ],
      "stateMutability": "view",
      "type": "function",
      "constant": true
    },
    {
      "inputs": [
        {
          "internalType": "uint256",
          "name": "indx",
          "type": "uint256"
        }
      ],
      "name": "getOwnerOwns",
      "outputs": [
        {
          "internalType": "string",
          "name": "",
          "type": "string"
        },
        {
          "internalType": "string",
          "name": "",
          "type": "string"
        },
        {
          "internalType": "string",
          "name": "",
          "type": "string"
        },
        {
          "internalType": "uint256",
          "name": "",
          "type": "uint256"
        }
      ],
      "stateMutability": "view",
      "type": "function",
      "constant": true
    },
    {
      "inputs": [
        {
          "internalType": "uint256",
          "name": "indx",
          "type": "uint256"
        }
      ],
      "name": "getAdminOwns",
      "outputs": [
        {
          "internalType": "string",
          "name": "",
          "type": "string"
        },
        {
          "internalType": "string",
          "name": "",
          "type": "string"
        },
        {
          "internalType": "string",
          "name": "",
          "type": "string"
        },
        {
          "internalType": "uint256",
          "name": "",
          "type": "uint256"
        }
      ],
      "stateMutability": "view",
      "type": "function",
      "constant": true
    },
    {
      "inputs": [
        {
          "internalType": "uint256",
          "name": "indx",
          "type": "uint256"
        }
      ],
      "name": "getRequestedLands",
      "outputs": [
        {
          "internalType": "string",
          "name": "",
          "type": "string"
        },
        {
          "internalType": "string",
          "name": "",
          "type": "string"
        },
        {
          "internalType": "string",
          "name": "",
          "type": "string"
        },
        {
          "internalType": "uint256",
          "name": "",
          "type": "uint256"
        }
      ],
      "stateMutability": "view",
      "type": "function",
      "constant": true
    },
    {
      "inputs": [],
      "name": "getUserProfile",
      "outputs": [
        {
          "internalType": "string",
          "name": "",
          "type": "string"
        },
        {
          "internalType": "string",
          "name": "",
          "type": "string"
        },
        {
          "internalType": "string",
          "name": "",
          "type": "string"
        },
        {
          "internalType": "uint256",
          "name": "",
          "type": "uint256"
        },
        {
          "internalType": "string",
          "name": "",
          "type": "string"
        }
      ],
      "stateMutability": "view",
      "type": "function",
      "constant": true
    },
    {
      "inputs": [],
      "name": "getIndices",
      "outputs": [
        {
          "internalType": "uint256",
          "name": "",
          "type": "uint256"
        },
        {
          "internalType": "uint256",
          "name": "",
          "type": "uint256"
        }
      ],
      "stateMutability": "view",
      "type": "function",
      "constant": true
    },
    {
      "inputs": [
        {
          "internalType": "string",
          "name": "_state",
          "type": "string"
        },
        {
          "internalType": "string",
          "name": "_district",
          "type": "string"
        },
        {
          "internalType": "string",
          "name": "_city",
          "type": "string"
        },
        {
          "internalType": "uint256",
          "name": "_surveyNo",
          "type": "uint256"
        }
      ],
      "name": "didIRequested",
      "outputs": [
        {
          "internalType": "bool",
          "name": "",
          "type": "bool"
        }
      ],
      "stateMutability": "view",
      "type": "function",
      "constant": true
    }
  ],
  "bytecode": "0x608080604052346100285760008054600160a060020a03191633179055613b46908161002e8239f35b600080fdfe6080604052600436101561001257600080fd5b7c01000000000000000000000000000000000000000000000000000000006000350480630e2279af146135955780631555ff1e146134935780631ac1ce2d14612b8e5780631c8e896214612ac157806327e30c36146129d357806329575f6a146129ac5780632ca305f3146129115780633b82b69f146122045780633bbd43b31461213d578063429b62e5146120a557806344e0573414611f2f5780635863056d14611ef95780636b31f32614611b525780636d1b9a8e14611ab75780636f61c744146119f85780638b5bcc3d1461194057806398faad5514611922578063992369da146118d1578063b6db75a0146118b6578063bfde241c1461150f578063c782da8e14610c1e578063d06efd6714610ba8578063d1dbeff214610b34578063d41cc5c81461045d578063d44cafa5146103c9578063e331ad7c14610291578063e7217f1614610276578063eaec23fa14610250578063eb68048b146102325763fc47f57d1461018257600080fd5b3461022d5760208060031936011261022d5760043533600052600682526040600020816000528252610229604060002054336000526006845260406000208360005284526101d6600160406000200161366f565b92336000526006855260406000208160005285526101fa600260406000200161366f565b9433600052600681526040600020916000525261021d600360406000200161366f565b6040519485948561387a565b0390f35b600080fd5b3461022d57600036600319011261022d576020600154604051908152f35b3461022d57602061026c610263366137f1565b92919091613a8c565b6040519015158152f35b3461022d57600036600319011261022d57602061026c613a66565b3461022d5760806102a1366137f1565b919290604051926103a48351926102de6102d86020978881818a01986102c881838c613713565b8101600881520301902089613854565b82613854565b83600052865261039e600160a060020a03604060002054169761032a6103246103148a898b604051938492839251928391613713565b8101600881520301902083613854565b84613854565b85600052885261038e886005604060002001549761036d6103678b84604051809251610357818389613713565b8101600881520301902086613854565b87613854565b88600052825260076040600020015499604051938492839251928391613713565b8101600881520301902090613854565b90613854565b9060005283526009604060002001549260405194855284015260408301526060820152f35b3461022d57604036600319011261022d57600160a060020a036103ea6135e3565b16806000526004602052600660406000200154602435810180911161042e57600791600052600460205260406000209060068201550161042a8154613904565b9055005b7f4e487b7100000000000000000000000000000000000000000000000000000000600052601160045260246000fd5b604036600319011261022d5733600090815260056020908152604080832060043580855292529091208054906104959060010161366f565b913360005260056020526040600020816000526020526104bb600260406000200161366f565b903360005260056020526040600020906000526020526104e1600360406000200161366f565b9161050f61032460405160208188516104fd8183858d01613713565b60088183015281010301902084613854565b81600052602052600b604060002001602435600052602052600160a060020a0360406000205416926105646102d8604051602081816105548b83815193849201613713565b8101600881520301902085613854565b82600052602052600b6040600020016024356000526020526000808080600260408220015488828215610b2b575bf115610b1f576105b56102d8604051602081816105548b83815193849201613713565b82600052602052600b6040600020016024356000526020526105ea6102d8604051602081816105548b83815193849201613713565b82600052602052600c6040600020015460005b8181106109f25750506106236102d8604051602081816105548b83815193849201613713565b82600052602052604060002084600160a060020a031982541617905561065c6102d8604051602081816105548b83815193849201613713565b82600052602052600a60406000200160ff1981541690556106906102d8604051602081816105548b83815193849201613713565b826000526020526000600c604082200155836000526009602052600660406000200154926005602052604060002084600052602052604060002095838755805167ffffffffffffffff81116108cd576106f9816106f060018b01546135f9565b60018b0161392a565b6020601f821160011461098257908061072a92600091610977575b50816002029160080260020a6000190419161790565b60018801555b815167ffffffffffffffff81116108cd5761075b8161075260028b01546135f9565b60028b0161392a565b6020601f821160011461090757908061078b926000916108fc5750816002029160080260020a6000190419161790565b60028801555b82519667ffffffffffffffff88116108cd576107bd886107b460038401546135f9565b6003840161392a565b602097601f811160011461084d5761039e939261038e926003610801846020956108189b9c9d9e6000916108425750816002029160080260020a6000190419161790565b9101555b8160405193828580945193849201613713565b906000526020526007604060002001556000526009602052600660406000200161042a8154613904565b90508a01518f610714565b60038201600052602060002060005b601f19831681106108b557509261038e926003600160028561039e99986108189c9d9e9f602098601f1981161061089a575b50500201910155610805565b8c01516008601f841602840a60001904191690558f8061088e565b868b0151825560209a8b019a6001909201910161085c565b7f4e487b7100000000000000000000000000000000000000000000000000000000600052604160045260246000fd5b90508401518a610714565b6002890160005260206000209060005b601f198416811061095f57509160029160019382601f19811610610944575b505002016002880155610791565b8601516008601f841602840a60001904191690558a80610936565b90916020600181928589015181550193019101610917565b90508301518a610714565b6001890160005260206000209060005b601f19841681106109da57509160029160019382601f198116106109bf575b505002016001880155610730565b8501516008601f841602840a60001904191690558a806109b1565b90916020600181928588015181550193019101610992565b600190610a2a610a24610a1460208b8160405193828580945193849201613713565b8101600881520301902088613854565b85613854565b85600052602052600b60406000200181600052602052600160a060020a0360406000205416610a74610a6e6102c860208c8160405193828580945193849201613713565b86613854565b86600052602052600b604060002001826000526020528260406000200154906000526007602052604060002090600052602052610ad26003604060002060008155610ac0858201613a1e565b610acc60028201613a1e565b01613a1e565b610af1610a24610a1460208b8160405193828580945193849201613713565b85600052602052600b60406000200181600052602052600060026040822082815582858201550155016105fd565b6040513d6000823e3d90fd5b506108fc610592565b3461022d57604036600319011261022d57600160a060020a03610b556135e3565b166000526005602052604060002060243560005260205260406000208054610229610b826001840161366f565b92610b9b6003610b946002840161366f565b920161366f565b906040519485948561375b565b3461022d576040610c05610bbb366137f1565b9192939061039e86519461038e878051610be66103678a6020809c8180970195610357818389613713565b886000528252600c8b6000200154998b51938492839251928391613713565b9060005281526005836000200154908351928352820152f35b3461022d5761012036600319011261022d5760043567ffffffffffffffff811161022d57610c5090369060040161379a565b60243567ffffffffffffffff811161022d57610c7090369060040161379a565b9060443567ffffffffffffffff811161022d57610c9190369060040161379a565b60a43591600160a060020a0393848416840361022d5760e43567ffffffffffffffff811161022d57610cc790369060040161379a565b916101043567ffffffffffffffff811161022d57610ce990369060040161379a565b336000526003602052338760406000205416036114c857336000526003602052610d27610d356003604060002001604051928391602083019061399a565b03601f19810183528261364d565b602081519101206040516020810190610d666020828751610d598187858c01613713565b810103808452018261364d565b5190201480611478575b80611426575b156113b957610d96610a6e60405160208186516105548183858b01613713565b60843560005260205260ff6008604060002001541661134c57610dca610a6e60405160208186516105548183858b01613713565b608435600052602052604060002090336000526005602052604060002060096020526006604060002001546000526020526040600020946009602052600160a060020a031989891681855416178455600384019033908254161790556064356005840155608435600684015588881660005260066040600020015460078401556008830160ff199060018282541617905560c43560098501556001600a85019182541617905580519067ffffffffffffffff82116108cd57610e9c82610e9360028701546135f9565b6002870161392a565b602090601f83116001146112d957610ecf9291600091836112ce575b5050816002029160080260020a6000190419161790565b60028301555b80519067ffffffffffffffff82116108cd57610f0182610ef860018601546135f9565b6001860161392a565b602090601f831160011461125b57610f33929160009183611250575050816002029160080260020a6000190419161790565b60018201555b610f4660048201546135f9565b601f811161122c575b506004600c7f4e6f20555249000000000000000000000000000000000000000000000000000001910155608435835580519067ffffffffffffffff82116108cd57610faa82610fa160018701546135f9565b6001870161392a565b602090601f83116001146111b957610fdc929160009183611138575050816002029160080260020a6000190419161790565b60018301555b80519067ffffffffffffffff82116108cd5761100e8261100560028601546135f9565b6002860161392a565b602090601f83116001146111435791806110449260039594600092611138575050816002029160080260020a6000190419161790565b60028201555b019080519067ffffffffffffffff82116108cd576110728261106c85546135f9565b8561392a565b602090601f83116001146110cd576110a49291600091836110c2575050816002029160080260020a6000190419161790565b90555b166000526009602052600660406000200161042a8154613904565b015190508680610eb8565b90601f198316918460005260206000209260005b81811061112057509160029391856001969410611105575b505050020190556110a7565b01516008601f841602840a60001904191690558680806110f9565b929360206001819287860151815501950193016110e1565b015190508880610eb8565b906002840160005260206000209160005b601f19851681106111a15750926001926002926003969583601f19811610611186575b5050500201600282015561104a565b01516008601f841602840a6000190419169055888080611177565b91926020600181928685015181550194019201611154565b906001850160005260206000209160005b601f19851681106112145750918391600293600195601f198116106111f9575b50505002016001830155610fe2565b01516008601f841602840a60001904191690558880806111ea565b919260206001819286850151815501940192016111ca565b61124a90600483016000526020601f81600020920104810190613913565b87610f4f565b015190508a80610eb8565b906001840160005260206000209160005b601f19851681106112b65750918391600293600195601f1981161061129b575b50505002016001820155610f39565b01516008601f841602840a60001904191690558a808061128c565b9192602060018192868501518155019401920161126c565b015190508b80610eb8565b906002850160005260206000209160005b601f19851681106113345750918391600293600195601f19811610611319575b50505002016002830155610ed5565b01516008601f841602840a60001904191690558b808061130a565b919260206001819286850151815501940192016112ea565b608460405160e560020a62461bcd02815260206004820152602160248201527f537572766579204e756d62657220616c7265616479207265676973746572656460448201527f21000000000000000000000000000000000000000000000000000000000000006064820152fd5b608460405160e560020a62461bcd02815260206004820152602a60248201527f41646d696e2063616e206f6e6c79207265676973746572206c616e64206f662060448201527f73616d6520636974792e000000000000000000000000000000000000000000006064820152fd5b50336000526003602052600160406000200160405161144d81610d2760208201809561399a565b519020604051602081019061146f60208281610d598c87815193849201613713565b51902014610d76565b50336000526003602052600260406000200160405161149f81610d2760208201809561399a565b51902060405160208101906114bf6020828851610d598187858d01613713565b51902014610d70565b606460405160e560020a62461bcd02815260206004820152601c60248201527f4f6e6c792061646d696e2063616e205265676973746572206c616e64000000006044820152fd5b3461022d5760a036600319011261022d5767ffffffffffffffff60043581811161022d5761154190369060040161379a565b60243582811161022d5761155990369060040161379a565b9160443581811161022d5761157290369060040161379a565b9160843582811161022d5761158b90369060040161379a565b923360005260209460098652604060002060019283820185518781116108cd576115bf816115b984546135f9565b8461392a565b89601f9788831160011461184c576115f1929160009183611769575050816002029160080260020a6000190419161790565b90555b600292838301908051908882116108cd576116138261106c85546135f9565b8a908883116001146117e257611643929160009183611769575050816002029160080260020a6000190419161790565b90555b805160038301918782116108cd576116628261106c85546135f9565b8990878311600114611774579180611697926005969594600092611769575050816002029160080260020a6000190419161790565b90555b6064356004820155019585519485116108cd576116c1856116bb89546135f9565b8961392a565b80938086116001146117005750505050819061042a936000926116f5575050816002029160080260020a6000190419161790565b015190508480610eb8565b91949390929584601f1981168960005285600020956000905b8a83831061174f5750505010611734575b5050505002019055005b0151908316600802840a60001904191690558480808061172a565b858701518955909701969485019488935090810190611719565b015190508c80610eb8565b93929185908b8893601f198316978660005282600020926000905b8a82106117c857505083600599106117ae575b5050500201905561169a565b01516008838c1602840a60001904191690558c80806117a2565b8383015185558c978c97509094019392830192018f61178f565b918b87928994601f1984168760005283600020936000905b8282106118305750508411611816575b50505002019055611646565b01516008838c1602840a60001904191690558c808061180a565b8484015186558d988d98509095019493840193908101906117fa565b918b8892601f1983168660005282600020926000905b82821061189d57505094836002959610611883575b505050020190556115f4565b01516008838c1602840a60001904191690558c8080611877565b8388015185558c96909401939283019290810190611862565b3461022d57600036600319011261022d57602061026c61396f565b3461022d5761038e611903602061039e6118ea366137f1565b9691928560409692965193828580945193849201613713565b90600052602052602060ff600a60406000200154166040519015158152f35b3461022d57600036600319011261022d576020600254604051908152f35b3461022d57604036600319011261022d576119596135e3565b600160a060020a03809116600052600660205260406000206024356000526020526040600020908154906119ee6119926001850161366f565b936119e06119a26002830161366f565b9360046119b16003850161366f565b93015416936119d2604051978897885260a0602089015260a0880190613736565b908682036040880152613736565b908482036060860152613736565b9060808301520390f35b3461022d57600036600319011261022d57336000526009602052611a96611a25600160406000200161366f565b336000526009602052610229611a41600260406000200161366f565b336000526009602052611a5a600360406000200161366f565b90336000526009602052611aa46040600020926119d2611a8160056004870154960161366f565b9360405198899860a08a5260a08a0190613736565b9088820360208a0152613736565b9160608501528382036080850152613736565b3461022d5760208060031936011261022d576004353360005260058252604060002081600052825261022960406000205433600052600584526040600020836000528452611b0b600160406000200161366f565b9233600052600585526040600020816000528552611b2f600260406000200161366f565b9433600052600581526040600020916000525261021d600360406000200161366f565b3461022d57611b603661389d565b92909160405193611b88611b8286888181516105548160209c8d809601613713565b83613854565b8460005285526040600020936001918260ff600a88015416151503611e8c57600c860190600b8254970187600052808952604060002033600160a060020a0319825416179055336000526009895260076040600020015497600052885260406000209684880155600280970155611bff8154613904565b90553360005260078652604060002060098752600760406000200154600052865260406000209081558181019387519467ffffffffffffffff958681116108cd57611c4e816115b984546135f9565b88601f9a8b8311600114611e1a57611c80929160009183611769575050816002029160080260020a6000190419161790565b90555b8051828701918682116108cd57611c9e8261106c85546135f9565b88908a8311600114611dac579180611cd3926003969594600092611769575050816002029160080260020a6000190419161790565b90555b019382519384116108cd57611cf584611cef87546135f9565b8761392a565b8596808511600114611d45575050509080600995611d2b936000926110c2575050816002029160080260020a6000190419161790565b90555b3360005252600760406000200161042a8154613904565b601f9492949391931983169786600052876000209260005b8a8110611d9757508460099a10611d7c575b5050505002019055611d2e565b0151908316600802840a600019041916905586808080611d6f565b81830151855593870193918901918901611d5d565b85919493928991601f19821696856000528c600020918d6000905b8a8210611e005750508360039910611de6575b50505002019055611cd6565b01516008838f1602840a60001904191690558c8080611dda565b8383015185558b978f97509094019392830192018e611dc7565b918a8a928894601f1984168760005283600020936000905b828210611e685750508411611e4e575b50505002019055611c83565b01516008838f1602840a60001904191690558c8080611e42565b9294848493959850869992979901518155019501930191899593918d95938f611e32565b6084876040519060e560020a62461bcd0282526004820152602560248201527f546869732070726f7065727479206973204e4f54206d61726b656420666f722060448201527f73616c65210000000000000000000000000000000000000000000000000000006064820152fd5b3461022d57600036600319011261022d573360005260096020526040806000206007600682015491015482519182526020820152f35b3461022d5760208060031936011261022d576004359033600052600581526040600020826000528152611f68600160406000200161366f565b9133600052600582526040600020816000528252611f8c600260406000200161366f565b33600052600583526040600020826000528352611faf600360406000200161366f565b91336000526005845260406000209060005283526040600020549360405190611fe8610a2482519387818186019661055481838a613713565b86600052855260ff600a6040600020015416612038579161038e8561039e9361201d9695604051938492839251928391613713565b6000928352905260409020600a01805460ff19166001179055005b6084856040519060e560020a62461bcd0282526004820152602160248201527f50726f706572747920616c7265616479206d61726b656420617661696c61626c60448201527f65000000000000000000000000000000000000000000000000000000000000006064820152fd5b3461022d57602036600319011261022d57600160a060020a03806120c76135e3565b1660005260036020526040600020908154166102296120e86001840161366f565b9261212f61210460036120fd6002850161366f565b930161366f565b916121216040519687968752608060208801526080870190613736565b908582036040870152613736565b908382036060850152613736565b3461022d576121af61214e3661389d565b9294909161039e6040519661038e87805161217a6103678c6020809e8180970195610357818389613713565b886000528252600b604060002001896000528252600160a060020a036040600020541699604051938492839251928391613713565b906000528352600b60406000200190600052825261022960026040600020015482600052600984526121e7600160406000200161366f565b906040519485948552840152606060408401526060830190613736565b3461022d5761012036600319011261022d5761221e6135e3565b60243567ffffffffffffffff811161022d5761223e90369060040161379a565b9060443567ffffffffffffffff811161022d5761225f90369060040161379a565b9060643567ffffffffffffffff811161022d5761228090369060040161379a565b60843567ffffffffffffffff811161022d576122a090369060040161379a565b9160a43567ffffffffffffffff811161022d576122c190369060040161379a565b9160c43567ffffffffffffffff811161022d576122e290369060040161379a565b956101043567ffffffffffffffff811161022d5761230490369060040161379a565b95600160a060020a0384166000526003602052604060002092612328600154613904565b600155835473ffffffffffffffffffffffffffffffffffffffff1916600160a060020a03861617845580519067ffffffffffffffff82116108cd5761237d8261237460018801546135f9565b6001880161392a565b602090601f831160011461289e576123af9291600091836112ce575050816002029160080260020a6000190419161790565b60018401555b80519067ffffffffffffffff82116108cd576123d882610e9360028701546135f9565b602090601f831160011461282b5761240a929160009183611250575050816002029160080260020a6000190419161790565b60028301555b80519067ffffffffffffffff82116108cd5761243c8261243360038601546135f9565b6003860161392a565b602090601f83116001146127ae5782600160a060020a0395949360039361247b936000926112ce575050816002029160080260020a6000190419161790565b9101555b166000526009602052604060002091600183019080519067ffffffffffffffff82116108cd576124b38261106c85546135f9565b602090601f8311600114612743576124e5929160009183611138575050816002029160080260020a6000190419161790565b90555b8051600283019167ffffffffffffffff82116108cd5761250c8261106c85546135f9565b602090601f83116001146126d85761253e929160009183612660575050816002029160080260020a6000190419161790565b90555b60038101835167ffffffffffffffff81116108cd57612564816115b984546135f9565b6020601f821160011461266b5790806125999260059697600092612660575050816002029160080260020a6000190419161790565b90555b60e4356004820155019080519067ffffffffffffffff82116108cd576125c68261106c85546135f9565b602090601f83116001146125f85761042a9291600091836116f5575050816002029160080260020a6000190419161790565b90601f198316918460005260206000209260005b8181106126485750916002939185600196941061262d575b50505002019055005b01516008601f841602840a6000190419169055848080612624565b9293602060018192878601518155019501930161260c565b015190508780610eb8565b601f198216958360005260206000209660005b8181106126c057509660029284926001956005999a106126a5575b5050500201905561259c565b01516008601f841602840a6000190419169055878080612699565b8383015189556001909801976020938401930161267e565b90601f198316918460005260206000209260005b81811061272b57509160029391856001969410612710575b50505002019055612541565b01516008601f841602840a6000190419169055878080612704565b929360206001819287860151815501950193016126ec565b90601f198316918460005260206000209260005b8181106127965750916002939185600196941061277b575b505050020190556124e8565b01516008601f841602840a600019041916905588808061276f565b92936020600181928786015181550195019301612757565b906003840160005260206000209160005b601f1985168110612813575083600393600193600293600160a060020a03999897601f198116106127f8575b505050020191015561247f565b01516008601f841602840a60001904191690558b80806127eb565b919260206001819286850151815501940192016127bf565b906002850160005260206000209160005b601f19851681106128865750918391600293600195601f1981161061286b575b50505002016002830155612410565b01516008601f841602840a60001904191690558a808061285c565b9192602060018192868501518155019401920161283c565b906001860160005260206000209160005b601f19851681106128f95750918391600293600195601f198116106128de575b505050020160018401556123b5565b01516008601f841602840a60001904191690558b80806128cf565b919260206001819286850151815501940192016128af565b3461022d5760208060031936011261022d576004353360005260078252604060002081600052825261022960406000205433600052600784526040600020836000528452612965600160406000200161366f565b9233600052600785526040600020816000528552612989600260406000200161366f565b9433600052600781526040600020916000525261021d600360406000200161366f565b3461022d57600036600319011261022d576020600160a060020a0360005416604051908152f35b3461022d57602036600319011261022d57600160a060020a03806129f56135e3565b166000526004602052604060002090815416612a136001830161366f565b91612a206002820161366f565b612ab2612a2f6003840161366f565b612aa4612a3e6004860161366f565b612a96612a4d6005880161366f565b93612a88600760068a015499015497612a7a6040519c8d809d6020610100928392815201528d0190613736565b908b820360408d0152613736565b9089820360608b0152613736565b908782036080890152613736565b9085820360a0870152613736565b9160c084015260e08301520390f35b3461022d57602036600319011261022d57600160a060020a0380612ae36135e3565b166000526009602052604060002090815416612b016001830161366f565b91612b0e6002820161366f565b612ab2612b1d6003840161366f565b600484015490612b7b612b326005870161366f565b91612b6d6007600689015498015496612b5f6040519b8c809c6020610100928392815201528c0190613736565b908a820360408c0152613736565b9088820360608a0152613736565b91608087015285820360a0870152613736565b3461022d5761016036600319011261022d57600435600160a060020a038116810361022d5760243567ffffffffffffffff811161022d57612bd390369060040161379a565b9060443567ffffffffffffffff811161022d57612bf490369060040161379a565b9060643567ffffffffffffffff811161022d57612c1590369060040161379a565b60843567ffffffffffffffff811161022d57612c3590369060040161379a565b9160a43567ffffffffffffffff811161022d57612c5690369060040161379a565b9160c43567ffffffffffffffff811161022d57612c7790369060040161379a565b956101043567ffffffffffffffff811161022d57612c9990369060040161379a565b956101243567ffffffffffffffff811161022d57612cbb90369060040161379a565b916101443567ffffffffffffffff811161022d57612cdd90369060040161379a565b91600160a060020a0386166000526004602052604060002094612d01600254613904565b600255855473ffffffffffffffffffffffffffffffffffffffff1916600160a060020a03881617865580519067ffffffffffffffff82116108cd57612d5682612d4d60018a01546135f9565b60018a0161392a565b602090601f831160011461342057612d88929160009183613415575050816002029160080260020a6000190419161790565b60018601555b80519067ffffffffffffffff82116108cd57612dba82612db160028901546135f9565b6002890161392a565b602090601f83116001146133a257612dec929160009183611769575050816002029160080260020a6000190419161790565b60028501555b80519067ffffffffffffffff82116108cd57612e1e82612e1560038801546135f9565b6003880161392a565b602090601f831160011461332f57612e509291600091836112ce575050816002029160080260020a6000190419161790565b60038401555b600560068401556001600784015580519067ffffffffffffffff82116108cd57612e9082612e8760058701546135f9565b6005870161392a565b602090601f83116001146132bc57612ec2929160009183611250575050816002029160080260020a6000190419161790565b60058301555b80519067ffffffffffffffff82116108cd57612ef482612eeb60048601546135f9565b6004860161392a565b602090601f831160011461323f5782600160a060020a03959493600493612f33936000926112ce575050816002029160080260020a6000190419161790565b9101555b166000526009602052604060002091600183019080519067ffffffffffffffff82116108cd57612f6b8261106c85546135f9565b602090601f83116001146131d457612f9d929160009183611138575050816002029160080260020a6000190419161790565b90555b8051600283019167ffffffffffffffff82116108cd57612fc48261106c85546135f9565b602090601f831160011461316957612ff6929160009183612660575050816002029160080260020a6000190419161790565b90555b60038101835167ffffffffffffffff81116108cd5761301c816115b984546135f9565b6020601f82116001146130fc5790806130519260059697600092612660575050816002029160080260020a6000190419161790565b90555b60e4356004820155019080519067ffffffffffffffff82116108cd5761307e8261106c85546135f9565b602090601f83116001146130b05761042a9291600091836116f5575050816002029160080260020a6000190419161790565b90601f198316918460005260206000209260005b8181106130e45750916002939185600196941061262d5750505002019055005b929360206001819287860151815501950193016130c4565b601f198216958360005260206000209660005b81811061315157509660029284926001956005999a10613136575b50505002019055613054565b01516008601f841602840a600019041916905587808061312a565b8383015189556001909801976020938401930161310f565b90601f198316918460005260206000209260005b8181106131bc575091600293918560019694106131a1575b50505002019055612ff9565b01516008601f841602840a6000190419169055878080613195565b9293602060018192878601518155019501930161317d565b90601f198316918460005260206000209260005b8181106132275750916002939185600196941061320c575b50505002019055612fa0565b01516008601f841602840a6000190419169055888080613200565b929360206001819287860151815501950193016131e8565b906004840160005260206000209160005b601f19851681106132a4575083600493600193600293600160a060020a03999897601f19811610613289575b5050500201910155612f37565b01516008601f841602840a60001904191690558b808061327c565b91926020600181928685015181550194019201613250565b906005850160005260206000209160005b601f19851681106133175750918391600293600195601f198116106132fc575b50505002016005830155612ec8565b01516008601f841602840a60001904191690558a80806132ed565b919260206001819286850151815501940192016132cd565b906003860160005260206000209160005b601f198516811061338a5750918391600293600195601f1981161061336f575b50505002016003840155612e56565b01516008601f841602840a60001904191690558b8080613360565b91926020600181928685015181550194019201613340565b906002870160005260206000209160005b601f19851681106133fd5750918391600293600195601f198116106133e2575b50505002016002850155612df2565b01516008601f841602840a60001904191690558c80806133d3565b919260206001819286850151815501940192016133b3565b015190508d80610eb8565b906001880160005260206000209160005b601f198516811061347b5750918391600293600195601f19811610613460575b50505002016001860155612d8e565b01516008601f841602840a60001904191690558d8080613451565b91926020600181928685015181550194019201613431565b3461022d5761038e6134ac602061039e6118ea366137f1565b906000526020526040600020600160a060020a039081815416906134d26001820161366f565b926134df6002830161366f565b90600383015416916134f36004820161366f565b600582015493600683015460078401549061356560ff60088701541693600987015495613552600c60ff600a8b015416990154996135446040519e8f9e8f6101809181528160208201520190613736565b8d810360408f015290613736565b9160608c01528a820360808c0152613736565b9660a089015260c088015260e0870152151561010086015261012085015215156101408401526101608301520390f35b3461022d57604036600319011261022d57600160a060020a036135b66135e3565b166000526007602052604060002060243560005260205260406000208054610229610b826001840161366f565b60043590600160a060020a038216820361022d57565b9060016002830492168015613643575b602083101461361457565b7f4e487b7100000000000000000000000000000000000000000000000000000000600052602260045260246000fd5b91607f1691613609565b90601f8019910116810190811067ffffffffffffffff8211176108cd57604052565b90604051918260008254613682816135f9565b908184526020946001916001811690816000146136f257506001146136b3575b5050506136b19250038361364d565b565b600090815285812095935091905b8183106136da5750506136b193508201013880806136a2565b855488840185015294850194879450918301916136c1565b925050506136b194925060ff191682840152151581028201013880806136a2565b60005b8381106137265750506000910152565b8181015183820152602001613716565b9060209161374f81518092818552858086019101613713565b601f01601f1916010190565b9261377b6137979593613789938652608060208701526080860190613736565b908482036040860152613736565b916060818403910152613736565b90565b81601f8201121561022d5780359067ffffffffffffffff82116108cd57604051926137cf601f8401601f19166020018561364d565b8284526020838301011161022d57816000926020809301838601378301015290565b608060031982011261022d5767ffffffffffffffff9160043583811161022d578261381e9160040161379a565b9260243581811161022d57836138369160040161379a565b9260443591821161022d5761384d9160040161379a565b9060643590565b60209061386e928260405194838680955193849201613713565b82019081520301902090565b9493926119d2606093611a966138989460808a5260808a0190613736565b930152565b60a060031982011261022d5767ffffffffffffffff9160043583811161022d57826138ca9160040161379a565b9260243581811161022d57836138e29160040161379a565b9260443591821161022d576138f99160040161379a565b906064359060843590565b600019811461042e5760010190565b81811061391e575050565b60008155600101613913565b9190601f811161393957505050565b6136b192600052602060002090602080601f85010483019310613965575b601f60209101040190613913565b9091508190613957565b33600052600360205233600160a060020a03604060002054161460001461399557600190565b600090565b6000929181546139a9816135f9565b92600191808316908115613a0357506001146139c6575b50505050565b9091929394506000526020906020600020906000915b8583106139f257505050500190388080806139c0565b8054858401529183019181016139dc565b60ff19168452505050811515909102019150388080806139c0565b613a2881546135f9565b9081613a32575050565b81601f60009311600114613a44575055565b908083918252613a626020601f818520950104840160018501613913565b5555565b33600052600460205233600160a060020a03604060002054161460001461399557600190565b9291613aae9061039e604093604051602081895161038e818385809e01613713565b60009283526020526040822090600c8201548015613b085791600b01835b838110613adc5750505050905090565b80855281865233600160a060020a03848720541614613afd57600101613acc565b505050505050600190565b50505090509056fea2646970667358221220c682e219990f358f7a93e2e123172cd7fdb017dbc5c4ffa2c58671a824de67d664736f6c63430008160033",
  "immutableReferences": {},
  "source": "// SPDX-License-Identifier: MIT\n\npragma solidity >=0.5.0 <0.9.0;\n\ncontract Registry {\n\n    address public superAdmin;\n    uint256 public totalAdmins;\n    uint256 public totalVendors;\n\n    struct Admin {\n        address adminAddress;\n        string city;\n        string district;\n        string state;\n    }\n\n    struct Vendor {\n        address payable vendorAddress;\n        string city;\n        string district;\n        string state;\n        string year;\n        string vendortype;\n        uint256 rating;\n        uint256 noofRaters;\n    }\n\n    struct LandDetails {\n        address owner;\n        string tendertype;\n        string tenderName;\n        address admin;\n        string ipfsuri;\n        uint256 propertyId;\n        uint256 surveyNumber;\n        uint256 index;\n        bool registered;\n        uint256 marketValue;\n        bool markAvailable;\n        mapping(uint256 => RequestDetails) requests; // reqNo => RequestDetails\n        uint256 noOfRequests; // other users requested to this land\n    }\n\n    struct UserProfile {\n        address userAddr;\n        string fullName;\n        string gender;\n        string email;\n        uint256 contact;\n        string residentialAddr;\n        uint256 totalIndices;\n        uint256 requestIndices; // this user requested to other lands\n    }\n\n    struct OwnerOwns {\n        uint256 surveyNumber;\n        string state;\n        string district;\n        string city;\n    }\n\n    struct AdminOwns {\n        uint256 surveyNo;\n        string state;\n        string district;\n        string city;\n        address AllocatedTo;\n    }\n\n    struct RequestedLands {\n        uint256 surveyNumber;\n        string state;\n        string district;\n        string city;\n    }\n\n    struct RequestDetails {\n        address payable whoRequested;\n        uint256 reqIndex;\n        uint256 BidAmount;\n    }\n\n    mapping(address => Admin) public admins;\n    mapping(address => Vendor) public vendors;\n    mapping(address => mapping(uint256 => OwnerOwns)) public ownerMapsProperty;\n    mapping(address => mapping(uint256 => AdminOwns)) public adminMapsProperty; // ownerAddr => index no. => OwnerOwns\n    mapping(address => mapping(uint256 => RequestedLands))\n        public requestedLands; // ownerAddr => reqIndex => RequestedLands\n    mapping(string => mapping(string => mapping(string => mapping(uint256 => LandDetails))))\n        public landDetalsMap; // state => district => city => surveyNo => LandDetails\n    mapping(address => UserProfile) public userProfile;\n\n    constructor() {\n        superAdmin = msg.sender;\n    }\n\n    modifier onlyAdmin() {\n        require(\n            admins[msg.sender].adminAddress == msg.sender,\n            \"Only admin can Register land\"\n        );\n        _;\n    }\n\n    // SuperAdmin: Registers new admin\n    function addAdmin(\n        address _adminAddr,\n        string memory _state,\n        string memory _district,\n        string memory _city,\n        string memory _fullName,\n        string memory _gender,\n        string memory _email,\n        uint256 _contact,\n        string memory _residentialAddr\n    ) external {\n        Admin storage newAdmin = admins[_adminAddr];\n        totalAdmins++;\n\n        newAdmin.adminAddress = _adminAddr;\n        newAdmin.city = _city;\n        newAdmin.district = _district;\n        newAdmin.state = _state;\n\n        UserProfile storage newUserProfile = userProfile[_adminAddr];\n\n        newUserProfile.fullName = _fullName;\n        newUserProfile.gender = _gender;\n        newUserProfile.email = _email;\n        newUserProfile.contact = _contact;\n        newUserProfile.residentialAddr = _residentialAddr;\n    }\n\n    function addVendor(\n        address payable _vendorAddr,\n        string memory _state,\n        string memory _district,\n        string memory _city,\n        string memory _fullName,\n        string memory _gender,\n        string memory _email,\n        uint256 _contact,\n        string memory _residentialAddr,\n        string memory _year,\n        string memory _vendortype\n    ) external {\n        Vendor storage newVendor = vendors[_vendorAddr];\n        totalVendors++;\n\n        newVendor.vendorAddress = _vendorAddr;\n        newVendor.city = _city;\n        newVendor.district = _district;\n        newVendor.state = _state;\n        newVendor.rating=5;\n        newVendor.noofRaters=1;\n        newVendor.vendortype=_vendortype;\n        newVendor.year=_year;\n        \n        UserProfile storage newUserProfile = userProfile[_vendorAddr];\n\n        newUserProfile.fullName = _fullName;\n        newUserProfile.gender = _gender;\n        newUserProfile.email = _email;\n        newUserProfile.contact = _contact;\n        newUserProfile.residentialAddr = _residentialAddr;\n    }\n\n   //function Give Rating \n   function GiveRating(address _vendortorating,uint256 _ratenumber) public {\n        vendors[_vendortorating].rating= vendors[_vendortorating].rating+_ratenumber;\n         vendors[_vendortorating].noofRaters++;\n   }\n\n    // check if it is admin\n    function isAdmin() external view returns (bool) {\n        if (admins[msg.sender].adminAddress == msg.sender) {\n            return true;\n        } else return false;\n    }\n\n    //Chekc if it is Vendor\n    function isVendor() external view returns (bool) {\n        if (vendors[msg.sender].vendorAddress == msg.sender) {\n            return true;\n        } else return false;\n    }\n\n    // Admin: registers land\n    function registerLand(\n        string memory _state,\n        string memory _district,\n        string memory _city,\n        uint256 _propertyId,\n        uint256 _surveyNo,\n        address _owner,\n        uint256 _marketValue,\n        string memory _tenderName,\n        string memory _tendertype\n    ) external onlyAdmin {\n        require(\n            keccak256(abi.encodePacked(admins[msg.sender].state)) ==\n                keccak256(abi.encodePacked(_state)) &&\n                keccak256(abi.encodePacked(admins[msg.sender].district)) ==\n                keccak256(abi.encodePacked(_district)) &&\n                keccak256(abi.encodePacked(admins[msg.sender].city)) ==\n                keccak256(abi.encodePacked(_city)),\n            \"Admin can only register land of same city.\"\n        );\n\n        require(\n            landDetalsMap[_state][_district][_city][_surveyNo].registered ==\n                false,\n            \"Survey Number already registered!\"\n        );\n\n\n        LandDetails storage newLandRegistry = landDetalsMap[_state][_district][\n            _city\n        ][_surveyNo];\n\n        OwnerOwns storage newOwnerOwns = ownerMapsProperty[msg.sender][\n            userProfile[msg.sender].totalIndices\n        ];\n\n        AdminOwns storage newAdminOwns = adminMapsProperty[msg.sender][\n            userProfile[msg.sender].totalIndices\n        ];\n\n        newLandRegistry.owner = _owner;\n        newLandRegistry.admin = msg.sender;\n        newLandRegistry.propertyId = _propertyId;\n        newLandRegistry.surveyNumber = _surveyNo;\n        newLandRegistry.index = userProfile[_owner].totalIndices;\n        newLandRegistry.registered = true;\n        newLandRegistry.marketValue = _marketValue;\n        newLandRegistry.markAvailable = true;\n        newLandRegistry.tenderName=_tenderName;\n        newLandRegistry.tendertype=_tendertype;\n        newLandRegistry.ipfsuri=\"No URI\";\n\n        newOwnerOwns.surveyNumber = _surveyNo;\n        newOwnerOwns.state = _state;\n        newOwnerOwns.district = _district;\n        newOwnerOwns.city = _city;\n\n        userProfile[_owner].totalIndices++;\n    }\n\n    // User_1: set user profile\n    function setUserProfile(\n        string memory _fullName,\n        string memory _gender,\n        string memory _email,\n        uint256 _contact,\n        string memory _residentialAddr\n    ) public {\n        UserProfile storage newUserProfile = userProfile[msg.sender];\n\n        newUserProfile.fullName = _fullName;\n        newUserProfile.gender = _gender;\n        newUserProfile.email = _email;\n        newUserProfile.contact = _contact;\n        newUserProfile.residentialAddr = _residentialAddr;\n    }\n\n    // User_1: mark property available\n    function markMyPropertyAvailable(uint256 indexNo) external {\n        string memory state = ownerMapsProperty[msg.sender][indexNo].state;\n        string memory district = ownerMapsProperty[msg.sender][indexNo]\n            .district;\n        string memory city = ownerMapsProperty[msg.sender][indexNo].city;\n        uint256 surveyNumber = ownerMapsProperty[msg.sender][indexNo]\n            .surveyNumber;\n\n        require(\n            landDetalsMap[state][district][city][surveyNumber].markAvailable ==\n                false,\n            \"Property already marked available\"\n        );\n\n        landDetalsMap[state][district][city][surveyNumber].markAvailable = true;\n    }\n\n    // User_2: Request for buy  *ownerAddress & index = arguements*\n    function RequestForBuy(\n        string memory _state,\n        string memory _district,\n        string memory _city,\n        uint256 _surveyNo,\n        uint256 _BidAmount\n    ) external {\n        LandDetails storage thisLandDetail = landDetalsMap[_state][_district][\n            _city\n        ][_surveyNo];\n        require(\n            thisLandDetail.markAvailable == true,\n            \"This property is NOT marked for sale!\"\n        );\n\n        uint256 req_serialNum = thisLandDetail.noOfRequests;\n        thisLandDetail.requests[req_serialNum].whoRequested = payable(\n            msg.sender\n        );\n        thisLandDetail.requests[req_serialNum].reqIndex = userProfile[\n            msg.sender\n        ].requestIndices;\n        thisLandDetail.requests[req_serialNum].BidAmount = _BidAmount;\n        thisLandDetail.noOfRequests++;\n\n        // adding requested land to user_2 profile\n        RequestedLands storage newReqestedLands = requestedLands[msg.sender][\n            userProfile[msg.sender].requestIndices\n        ];\n        newReqestedLands.surveyNumber = _surveyNo;\n        newReqestedLands.state = _state;\n        newReqestedLands.district = _district;\n        newReqestedLands.city = _city;\n\n        userProfile[msg.sender].requestIndices++;\n    }\n\n    // User_1: Accept the buy request; sell.\n    function AcceptRequest(uint256 _index, uint256 _reqNo) public payable {\n        uint256 _surveyNo = ownerMapsProperty[msg.sender][_index].surveyNumber;\n        string memory _state = ownerMapsProperty[msg.sender][_index].state;\n        string memory _district = ownerMapsProperty[msg.sender][_index]\n            .district;\n        string memory _city = ownerMapsProperty[msg.sender][_index].city;\n\n        // updating LandDetails\n        address payable newOwner = landDetalsMap[_state][_district][_city][\n            _surveyNo\n        ].requests[_reqNo].whoRequested;\n\n        uint256 amounttopay\n        =landDetalsMap[_state][_district][_city][\n            _surveyNo\n        ].requests[_reqNo].BidAmount;\n\n        newOwner.transfer(amounttopay);\n\n        uint256 newOwner_reqIndex = landDetalsMap[_state][_district][_city][\n            _surveyNo\n        ].requests[_reqNo].reqIndex;\n\n\n        uint256 noOfReq = landDetalsMap[_state][_district][_city][_surveyNo]\n            .noOfRequests;\n\n        // deleting requested land from all requesters AND removing all incoming requests\n        for (uint256 i = 0; i < noOfReq; i++) {\n            address requesterAddr = landDetalsMap[_state][_district][_city][\n                _surveyNo\n            ].requests[i].whoRequested;\n            uint256 requester_reqIndx = landDetalsMap[_state][_district][_city][\n                _surveyNo\n            ].requests[i].reqIndex;\n\n            delete requestedLands[requesterAddr][requester_reqIndx];\n            delete landDetalsMap[_state][_district][_city][_surveyNo].requests[\n                i\n            ];\n        }\n\n        landDetalsMap[_state][_district][_city][_surveyNo].owner = newOwner;\n        landDetalsMap[_state][_district][_city][_surveyNo]\n            .markAvailable = false;\n        landDetalsMap[_state][_district][_city][_surveyNo].noOfRequests = 0;\n\n        // deleting property from user_1's ownerMapsProperty\n        // delete ownerMapsProperty[msg.sender][_index];\n\n        // adding ownerMapsProperty for newOwner\n        uint256 newOwnerTotProp = userProfile[newOwner].totalIndices;\n        OwnerOwns storage newOwnerOwns = ownerMapsProperty[newOwner][\n            newOwnerTotProp\n        ];\n\n        newOwnerOwns.surveyNumber = _surveyNo;\n        newOwnerOwns.state = _state;\n        newOwnerOwns.district = _district;\n        newOwnerOwns.city = _city;\n\n        landDetalsMap[_state][_district][_city][_surveyNo]\n            .index = newOwnerTotProp;\n\n        userProfile[newOwner].totalIndices++;\n    }\n\n    //******* GETTERS **********\n\n    // return land details\n    function getLandDetails(\n        string memory _state,\n        string memory _district,\n        string memory _city,\n        uint256 _surveyNo\n    )\n        external\n        view\n        returns (\n            address,\n            uint256,\n            uint256,\n            uint256\n        )\n    {\n        address owner = landDetalsMap[_state][_district][_city][_surveyNo]\n            .owner;\n        uint256 propertyid = landDetalsMap[_state][_district][_city][_surveyNo]\n            .propertyId;\n        uint256 indx = landDetalsMap[_state][_district][_city][_surveyNo].index;\n        uint256 mv = landDetalsMap[_state][_district][_city][_surveyNo]\n            .marketValue;\n\n        return (owner, propertyid, indx, mv);\n    }\n\n    function getRequestCnt_propId(\n        string memory _state,\n        string memory _district,\n        string memory _city,\n        uint256 _surveyNo\n    ) external view returns (uint256, uint256) {\n        uint256 _noOfRequests = landDetalsMap[_state][_district][_city][\n            _surveyNo\n        ].noOfRequests;\n        uint256 _propertyId = landDetalsMap[_state][_district][_city][_surveyNo]\n            .propertyId;\n        return (_noOfRequests, _propertyId);\n    }\n\n    function getRequesterDetail(\n        string memory _state,\n        string memory _district,\n        string memory _city,\n        uint256 _surveyNo,\n        uint256 _reqIndex\n    )\n        external\n        view\n        returns (\n            address,\n            uint256,\n            string memory\n        )\n    {\n        address requester = landDetalsMap[_state][_district][_city][_surveyNo]\n            .requests[_reqIndex]\n            .whoRequested;\n\n        uint256 BidAmount = landDetalsMap[_state][_district][_city][_surveyNo]\n            .requests[_reqIndex]\n            .BidAmount;\n\n        string memory NameofRequester = userProfile[requester].fullName;\n\n        return (requester, BidAmount, NameofRequester);\n    }\n\n    function isAvailable(\n        string memory _state,\n        string memory _district,\n        string memory _city,\n        uint256 _surveyNo\n    ) external view returns (bool) {\n        bool available = landDetalsMap[_state][_district][_city][_surveyNo]\n            .markAvailable;\n        return (available);\n    }\n\n    function getOwnerOwns(uint256 indx)\n        external\n        view\n        returns (\n            string memory,\n            string memory,\n            string memory,\n            uint256\n        )\n    {\n        uint256 surveyNo = ownerMapsProperty[msg.sender][indx].surveyNumber;\n        string memory state = ownerMapsProperty[msg.sender][indx].state;\n        string memory district = ownerMapsProperty[msg.sender][indx].district;\n        string memory city = ownerMapsProperty[msg.sender][indx].city;\n\n        return (state, district, city, surveyNo);\n    }\n\n    function getAdminOwns(uint256 indx)\n        external\n        view\n        returns (\n            string memory,\n            string memory,\n            string memory,\n            uint256\n        )\n    {\n        uint256 surveyNo = adminMapsProperty[msg.sender][indx].surveyNo;\n        string memory state = adminMapsProperty[msg.sender][indx].state;\n        string memory district = adminMapsProperty[msg.sender][indx].district;\n        string memory city = adminMapsProperty[msg.sender][indx].city;\n\n        return (state, district, city, surveyNo);\n    }\n\n    function getRequestedLands(uint256 indx)\n        external\n        view\n        returns (\n            string memory,\n            string memory,\n            string memory,\n            uint256\n        )\n    {\n        uint256 surveyNo = requestedLands[msg.sender][indx].surveyNumber;\n        string memory state = requestedLands[msg.sender][indx].state;\n        string memory district = requestedLands[msg.sender][indx].district;\n        string memory city = requestedLands[msg.sender][indx].city;\n\n        return (state, district, city, surveyNo);\n    }\n\n    function getUserProfile()\n        external\n        view\n        returns (\n            string memory,\n            string memory,\n            string memory,\n            uint256,\n            string memory\n        )\n    {\n        string memory fullName = userProfile[msg.sender].fullName;\n        string memory gender = userProfile[msg.sender].gender;\n        string memory email = userProfile[msg.sender].email;\n        uint256 contact = userProfile[msg.sender].contact;\n        string memory residentialAddr = userProfile[msg.sender].residentialAddr;\n\n        return (fullName, gender, email, contact, residentialAddr);\n    }\n\n    function getIndices() external view returns (uint256, uint256) {\n        uint256 _totalIndices = userProfile[msg.sender].totalIndices;\n        uint256 _reqIndices = userProfile[msg.sender].requestIndices;\n\n        return (_totalIndices, _reqIndices);\n    }\n\n    function didIRequested(\n        string memory _state,\n        string memory _district,\n        string memory _city,\n        uint256 _surveyNo\n    ) external view returns (bool) {\n        LandDetails storage thisLandDetail = landDetalsMap[_state][_district][\n            _city\n        ][_surveyNo];\n        uint256 _noOfRequests = thisLandDetail.noOfRequests;\n\n        if (_noOfRequests == 0) return (false);\n\n        for (uint256 i = 0; i < _noOfRequests; i++) {\n            if (thisLandDetail.requests[i].whoRequested == msg.sender) {\n                return (true);\n            }\n        }\n\n        return (false);\n    }\n}",
  "sourcePath": "E:\\VIT PUNE\\TY SEM 1\\EDI\\Nov\\land-registry-master\\contracts\\Registry.sol",
  "compiler": {
    "name": "solc",
    "version": "0.8.22+commit.4fc1097e.Emscripten.clang"
  },
  "schemaVersion": "3.4.13",
  "updatedAt": "2023-11-05T10:44:49.221Z",
  "networkType": "ethereum",
  "devdoc": {
    "kind": "dev",
    "methods": {},
    "version": 1
  },
  "userdoc": {
    "kind": "user",
    "methods": {},
    "version": 1
  }
}